:060000000A128A11FC2F18
:100DDE008316031386018312031386010800F000A5
:100DEE0070088312031393008C1DFE2EFF2EFB2E14
:100DFE008C1108000830F300F10173080A128A11F1
:100E0E0023270A128A110130F302031D0F2F102F10
:100E1E00032F0800831603130716D7308705DF301C
:100E2E008505DF3083120313850530309400803042
:100E3E008316031394000800F20083120313851225
:100E4E0072080A128A11F6260A128A1171080A12FB
:100E5E008A11F6260A128A118312031385160800C8
:100E6E000330F6000830F5007730F400F40B3D2F18
:100E7E00F50B3D2FF60B3D2F831203138516F10153
:100E8E0009300A128A1123270A128A110730F1003B
:100E9E000B300A128A1123270A128A110230F1002E
:100EAE000A300A128A1123270A128A11F101F10A55
:100EBE000C300A128A1123270A128A110A128A1179
:100ECE0001270A128A1108000A128A1111270A1222
:100EDE008A110A128A1137270A128A110A128A11E6
:100EEE00EF260A128A11FA01FB010130FC000030D4
:100EFE00FD007D08803AFF0080307F02031D892FA0
:100F0E0009307C02031C8C2F8D2F8E2FCE2F7D0847
:100F1E00803AFF0080307F02031D972F06307C023F
:100F2E0003189A2F9B2FAA2F0130F7007C08FF3E43
:100F3E00013EA32F0310F70DFF3E031DA12F7708CF
:100F4E008312031386000130F7007A0AB02F0310C4
:100F5E00F70DFF3E031DAE2F7708F1007C080A1235
:100F6E008A1123270A128A110330F9000830F8007B
:100F7E007730F700F70BC12FF80BC12FF90BC12FEC
:100F8E000130FC070318FD0A0030FD07802F0130E9
:100F9E00FA070318FB0A0030FB077B08803AFF00B4
:100FAE0080307F02031DDD2F08307A02031CE02FF4
:100FBE00E12FE82FFA01FB010A128A1101270A120A
:100FCE008A118312031386010B30F9002630F800C4
:100FDE005D30F700F70BF12FF80BF12FF90BF12F16
:100FEE00F82F7C2F0A128A11002883010A128A1107
:020FFE006B2F57
:02400E003A3D39
:00000001FF
