:060000000A128A11FC2F18
:100DA6008316031386018312031386010800F000DD
:100DB60070088312031393008C1DE22EE32EDF2EA0
:100DC6008C110800831603130716D7308705DF300A
:100DD6008505DF308312031385053030940080309B
:100DE60083160313940008008312031385127108F7
:100DF6000A128A11DA260A128A1173080A128A114D
:100E0600DA260A128A11831203138516080008309F
:100E1600F6007608F400F5017408F1007508F20092
:100E2600F3010A128A11F7260A128A110130F60214
:100E3600031D1E2F1F2F0C2F08000330F90008304A
:100E4600F8007730F700F70B262FF80B262FF90B53
:100E5600262F8312031385160930F1000030F200A5
:100E6600F3010A128A11F7260A128A110B30F100D1
:100E76000030F2000730F3000A128A11F7260A1230
:100E86008A110A30F1000030F2000230F3000A1233
:100E96008A11F7260A128A110C30F1000030F2008E
:100EA600F301F30A0A128A11F7260A128A110A12A4
:100EB6008A110A270A128A1108000A128A11E526DF
:100EC6000A128A110A128A1120270A128A110A1294
:100ED6008A11D3260A128A1183120313A401A501CB
:100EE60083120313A201A3012308803AFF00803076
:100EF6007F02031D802F09302202031C832F842FBB
:100F0600852FDE2F0A128A110A270A128A118312E6
:100F160003132408013EA00025080318013E003EE5
:100F2600A100B32F831203132108F2002008F10059
:100F36000330FA00220AA12F0310FA0DFF3E031D0B
:100F46009F2F7A08F3000A128A11F7260A128A11CD
:100F5600013083120313A0070318A10A0030A1076A
:100F66002408023EFA0025080318013E003EFB0055
:100F76007B08803AFC002108803A7C02031DC52FBD
:100F860020087A020318C82FC92F952F0330FC00BA
:100F96000830FB007730FA00FA0BCF2FFB0BCF2F70
:100FA600FC0BCF2F013083120313A2070318A30AE9
:100FB6000030A307772F013083120313A407031809
:100FC600A50A0030A5072508803AFF0080307F0279
:100FD600031DEF2F07302402031CF22FF32F732F6C
:100FE6000A128A110A270A128A116F2F0A128A1107
:0A0FF600002883010A128A11602FFF
:02400E003A3D39
:00000001FF
