:060000000A128A11FC2F18
:100CFC008316031386018312031386010800F00088
:100D0C0070088312031393008C1D8D2E8E2E8A2E49
:100D1C008C110800831603130716D7308705DF30B4
:100D2C008505DF3083120313850530309400803045
:100D3C0083160313940008008312031385127108A1
:100D4C000A128A1185260A128A1173080A128A114C
:100D5C0085260A128A11831203138516080008309F
:100D6C00F6007608F400F5017408F1007508F2003D
:100D7C00F3010A128A11A2260A128A110130F60214
:100D8C00031DC92ECA2EB72E08000330F9000830F7
:100D9C00F8007730F700F70BD12EF80BD12EF90BAA
:100DAC00D12E8312031385160930F1000030F200A6
:100DBC00F3010A128A11A2260A128A110B30F100D1
:100DCC000030F2000730F3000A128A11A2260A1230
:100DDC008A110A30F1000030F2000230F3000A12DE
:100DEC008A11A2260A128A110C30F1000030F2008E
:100DFC00F301F30A0A128A11A2260A128A110A12A4
:100E0C008A11B5260A128A1108000A128A11902634
:100E1C000A128A110A128A11CB260A128A110A1294
:100E2C008A117E260A128A11013083120313A00044
:100E3C000030A100831203132108F2002008F100F6
:100E4C000F30F3000A128A11A2260A128A110130FD
:100E5C0083120313A0070318A10A0030A10721086D
:100E6C00803AFF0080307F02031D3E2F05302002A8
:100E7C00031C412F422F202F0B30FC002630FB008F
:100E8C005D30FA00FA0B482FFB0B482FFC0B482F58
:100E9C004F2F053083120313A2000030A3008312DE
:100EAC0003132308F2002208F100F030F3000A12B9
:100EBC008A11A2260A128A11013083120313A20787
:100ECC000318A30A0030A3072308803AFF008030E0
:100EDC007F02031D732F09302202031C762F772FFC
:100EEC00552F0B30FC002630FB005D30FA00FA0B5E
:100EFC007D2FFB0B7D2FFC0B7D2F842F0A128A116B
:100F0C00B5260A128A11053083120313A40000308F
:100F1C00A500831203132508F2002408F1000F30FA
:100F2C00F3000A128A11A2260A128A1101308312C6
:100F3C000313A4070318A50A0030A5072508803A57
:100F4C00FF0080307F02031DAD2F09302402031CEB
:100F5C00B02FB12F8F2F0B30FC002630FB005D30F3
:100F6C00FA00FA0BB72FFB0BB72FFC0BB72FBE2FCA
:100F7C00013083120313A6000030A7008312031361
:100F8C002708F2002608F100F030F3000A128A114B
:100F9C00A2260A128A11013083120313A607031822
:100FAC00A70A0030A7072708803AFF0080307F028D
:100FBC00031DE22F05302602031CE52FE62FC42F5C
:100FCC000B30FC002630FB005D30FA00FA0BEC2FE6
:100FDC00FB0BEC2FFC0BEC2FF32F0A128A11B5260E
:100FEC000A128A111A2F0A128A11002883010A1276
:040FFC008A110B2F1C
:02400E003A3D39
:00000001FF
