:060000000A128A11FC2F18
:100E08008316031386018312031386010800F0007A
:100E180070088312031393008C1D132F142F102FA7
:100E28008C1108000830F300F10173080A128A11C6
:100E380038270A128A110130F302031D242F252FA7
:100E4800182F0800831603130716D7308705DF30DD
:100E58008505DF3083120313850530309400803018
:100E68008316031394000800F200831203138512FB
:100E780072080A128A110B270A128A1171080A12BB
:100E88008A110B270A128A11831203138516080088
:100E98000330F6000830F5007730F400F40B522FD9
:100EA800F50B522FF60B522F831203138516F101FF
:100EB80009300A128A1138270A128A110730F100FC
:100EC8000B300A128A1138270A128A110230F100EF
:100ED8000A300A128A1138270A128A11F101F10A16
:100EE8000C300A128A1138270A128A110A128A113A
:100EF80016270A128A1108000A128A1126270A12CE
:100F08008A110A128A114C270A128A110A128A11A6
:100F180004270A128A1183120313A201A3010130C4
:100F280083120313A4000030A5000A128A111627A1
:100F38000A128A1183120313220AF7000130F800FB
:100F48000030F900AA2F0310F80DF90DF70BA72FA1
:100F58007808A0007908A1002008F10024080A12E6
:100F68008A1138270A128A110B30F9002630F80046
:100F78005D30F700F70BBE2FF80BBE2FF90BBE2F15
:100F8800C52F013083120313A4070318A50A0030E4
:100F9800A5072508803AFF0080307F02031DD62F61
:100FA80009302402031CD92FDA2F992F013083121C
:100FB8000313A2070318A30A0030A3072308803AE3
:100FC800FF0080307F02031DEB2F08302202031C34
:100FD800EE2FEF2F932F83120313A201A3010A12FE
:100FE8008A1116270A128A11932F0A128A110028C9
:080FF80083010A128A11802F07
:02400E003A3D39
:00000001FF
