:060000000A128A11D82F3C
:10000A0083160313860183120313860108008312E1
:10001A000313A001A10143288312031320087207C6
:10002A00F7007308F6000318F60AA01F1D28F60346
:10003A007608F800770884008317781C8313000871
:10004A00F9008312031320087007FB007108FA00F5
:10005A000318FA0AA01F3228FA037A08FC007B0860
:10006A00840083177C1C8313790880000130831273
:10007A000313A0070318A10A0030A1072108803A38
:10008A00F6007508803A7602031D4D28740820028E
:10009A00031C50285128112808000A128A15F8262C
:1000AA000A128A110A128A15C0270A128A110A121A
:1000BA008A1105200A128A11831603133108A00037
:1000CA003208A1003308A2000330A3000030A400C4
:1000DA00A530F0000030F1000030F200F3000030EB
:1000EA00F400F5000A128A155F270A128A11A53050
:1000FA0083120313DB000030DC00A030DD0083161E
:10010A000313240883120313DF008316031323083F
:10011A0083120313DE000A128A117C240A128A113E
:10012A006D280A128A110028831203133908F10074
:10013A003808F0003B08F3003A08F2000A128A1560
:10014A009B270A128A117108F9007008F8000A122E
:10015A008A11B2230A128A11780883120313BC0087
:10016A007908BD003C083D040319BC28BD28DA28DB
:10017A003C08F6003D08F7000030F800F90039089D
:10018A00F1003808F0003B08F3003A08F2000A12BE
:10019A008A159B270A128A117108FB007008FA0057
:1001AA000A128A157C270A128A11831203133C0841
:1001BA00B8003D08B90008007008840083130008DD
:1001CA00F100840A0008F2008312031369086A0422
:1001DA00031DF028F128F5287030E9000130EA0003
:1001EA00003072020430031971020318FD28FE2838
:1001FA0002290430F1000030F20071086902F300AC
:10020A006A08031C6A03F4000130740210300319EF
:10021A007302031C112912291C296A087402031D7E
:10022A00182969087302031C1B291C2925290C306B
:10023A0083160313AF000030B000F001F1012D293D
:10024A007308E9007408EA006908F0006A08F10016
:10025A00080083120313AE005A292608F000270863
:10026A00F1000A128A150A270A128A117329260826
:10027A00F0002708F1000A128A1546270A128A1185
:10028A0073292608F0002708F1000A128A15E726C2
:10029A000A128A1173292608F0002708F1000A12A7
:1002AA008A15D1260A128A1173292E08AC00AD01CB
:1002BA002D08003A0319622973292C08003A0319F8
:1002CA003229013A03193C29033A03194629013A0A
:1002DA0003195029073A0319732973290A128A152F
:1002EA0030270A128A11831203132608F4002708FA
:1002FA00F5002B08F7002A08F6002808F800290854
:10030A00F9000A128A117F220A128A110800EE29BC
:10031A005508F0005608F1005808F3005708F20093
:10032A000A128A1101220A128A118312031355082A
:10033A00BE005608BF005808C1005708C0000A127C
:10034A008A110D230A128A11002A5508BE0056087E
:10035A00BF005808C1005708C0000A128A110D23AD
:10036A000A128A11831203135508F0005608F10085
:10037A005808F3005708F2000A128A1101220A12D9
:10038A008A11002AD901DA01831203135508BE0023
:10039A005608BF005808C1005708C0000A128A113F
:1003AA000D230A128A11013083120313D907031885
:1003BA00DA0A0030DA075A08803AFF0080307F02F2
:1003CA00031DE92903305902031CEC29ED29C92927
:1003DA00002A831203135408003A0319F529002A44
:1003EA005308003A03198D29013A0319AA29033A35
:1003FA000319C729002A080083120313A101A201C5
:10040A007208FF3EA30073080318013EFF3EA400D2
:10041A00702A8312031321087007F5007108F4008B
:10042A000318F40AA11F1A2AF4037408F6007508BF
:10043A0084008317761C8313000883120313A00019
:10044A0023087007F5007108F4000318F40AA31FC3
:10045A002F2AF4037408F600750884008317761CA3
:10046A0083130008F7008312031321087007F900A9
:10047A007108F8000318F80AA11F442AF80378083B
:10048A00FA007908840083177A1C8313770880009E
:10049A008312031323087007F5007108F400031888
:1004AA00F40AA31F592AF4037408F6007508840095
:1004BA008317761C831383120313200880000130EC
:1004CA00A1070318A20A0030A207FF30A3070318E6
:1004DA00A40AFF30A4072208803AF4002408803ACC
:1004EA007402031D7A2A23082102031C7D2A7E2A0C
:1004FA000E2A0800740884008317751C83130008E9
:10050A0083120313A000840A0008A1002008013EF8
:10051A00FC0021080318013E003EFD00EA2A740887
:10052A0084008317751C8313000883120313A00029
:10053A00840A0008A10020087C02A2002108031CEA
:10054A00210A7D02A3002208FF3EFA0023080318AD
:10055A00013EFF3EFB007D08F2007C08F1007A08AC
:10056A007807A1007908A0000318A00AFA1FBE2A7A
:10057A00A003831203132008A20021088400831712
:10058A00221C83130008A3007408023EA400750805
:10059A000318013E003EA500240884008317251C89
:1005AA008313000ADA2A0310A30DFF3E031DD82A7B
:1005BA002308F3000A128A151D270A128A1101302C
:1005CA00FC070318FD0A0030FD077408840083172E
:1005DA00751C8313000883120313A000840A000801
:1005EA00A10076082007A20077080318770A2107D6
:1005FA00A3002308803AA4007D08803A2402031D40
:10060A00082B7C08220203180B2B0C2B942A0800B7
:10061A00831203134108B9004008B8000130BA0038
:10062A000030BB000A128A1199200A128A11831219
:10063A0003133808CF003908D0004F0850040319B3
:10064A00272B282BA62B4008FF3ED1004108031870
:10065A00013EFF3ED200D21F332B342B352B952B74
:10066A004008FF3ECD0041080318013EFF3ECE0080
:10067A00CB01CC01CE1F422B432B442B8E2B4B0894
:10068A003E07C3003F08C2000318C20ACB1F4E2B05
:10069A00C203831203134208C40043088400831769
:1006AA00441C83130008C500510A5D2B0310C50CB6
:1006BA00FF3E031D5B2B45080139C6004D0A672B17
:1006CA000310C60DFF3E031D652B4608C7005108DF
:1006DA004F07C9005008C8000318C80AD11F762B53
:1006EA00C803831203134808CA0049088400831701
:1006FA004A1C831347088004FF30CD070318CE0A2B
:10070A00FF30CE070130CB070318CC0A0030CC07E4
:10071A003F2BFF30D1070318D20AFF30D207302B04
:10072A003E08F0003F08F1004F08F2005008F300BD
:10073A004108F5004008F4000A128A110C200A1236
:10074A008A11831203134F08F0005008F1000A12AD
:10075A008A1164250A128A11080083120313B2014E
:10076A00B30178087904031DBB2BBC2BC22B0130C3
:10077A00F8070318F90A0030F90700307902023045
:10078A00031978020318CA2BCB2BD02B0230F8009E
:10079A000030F900E82B7908FB007808FA00FA091A
:1007AA00FB0900307B02023003197A020318DE2BA0
:1007BA00DF2BE82B0C3083160313AF000030B00098
:1007CA00F801F9017B2C7908F1007808F0000A1287
:1007DA008A1152260A128A11700883120313B4006E
:1007EA007108B50034083504031DFC2BFD2B772C4A
:1007FA006B08831603132D02FA00831203136C0885
:10080A00031C6C0A831603132E02FB0079087B0271
:10081A00031D112C78087A020318142C152C562C57
:10082A007808023E83120313AE0079080318013ECA
:10083A00003EAF002E30F0000A128A11E1200A129F
:10084A008A11700883120313B6007108B7003608BC
:10085A003704031D312C322C332CE52B831603135A
:10086A002E08831203133706031D412C8316031324
:10087A002D088312031336060319442C452C492CE0
:10088A003608EB003708EC002E08360783160313E8
:10089A00AD008312031337080318013E83160313AE
:1008AA00AE00831203136B08B4006C08B500340859
:1008BA00B0003508B100300884008317311C831357
:1008CA0078088000840A790880000230B00703188B
:1008DA00B10A3008B4003108B5007808023EEB07C7
:1008EA000318EC0A3408F8003508F90008008312E6
:1008FA0003135F08B9005E08B8000130BA0000307F
:10090A00BB000A128A1199200A128A118312031350
:10091A003808E7003908E8006708F0006808F100BD
:10092A005D08F2000030F3005F08F5005E08F4008D
:10093A000A128A110C200A128A1183120313E50182
:10094A00E60183120313E301E401F72C5B08A60016
:10095A005C08A7006708A8006808A9005F08AB0040
:10096A005E08AA0003300A128A112E210A128A117D
:10097A000C2D5B08A6005C08A7006708A800680899
:10098A00A9005F08AB005E08AA0000300A128A11AB
:10099A002E210A128A110C2D5B08A6005C08A700FA
:1009AA006708A8006808A9005F08AB005E08AA00EB
:1009BA0002300A128A112E210A128A110C2D5B08A2
:1009CA00A6005C08A7006708A8006808A9005F08D5
:1009DA00AB005E08AA0001300A128A112E210A12FF
:1009EA008A110C2D831203136608003A0319FE2C90
:1009FA000C2D6508003A0319AB2C013A0319BE2CD9
:100A0A00033A0319D12C013A0319E42C0C2D0330B3
:100A1A0083120313E2000830E1007630E000E00BB5
:100A2A00142DE10B142DE20B142D0000013083125A
:100A3A000313E3070318E40A0030E4076408803A62
:100A4A00FF0080307F02031D2C2D05306302031C3A
:100A5A002F2D302DF72C831203136608D400650856
:100A6A00D3006708D5006808D6005F08D8005E087A
:100A7A00D7000A128A118C210A128A1101308312B4
:100A8A000313E5070318E60A0030E6076608803A0A
:100A9A00FF0080307F02031D542D04306502031CC1
:100AAA00572D582DA62C831203136708F0006808E7
:100ABA00F1000A128A1164250A128A1108007008C4
:100ACA00F8007108F90070087104031D6D2D6E2D70
:100ADA006F2D512EFE30F20072087807FA0079085D
:100AEA00F3000318F30AF21BF3037308FB008312E3
:100AFA0003136D086E040319832D842D402E7A0882
:100B0A00840083177B1C831300087807F200790896
:100B1A000318013EF30073086E06031D962D720832
:100B2A006D06031D992D9A2DE62D6D08023EF200E1
:100B3A006E080318013E003EF30072088400831712
:100B4A00731C83130008F400840A0008F5007A086D
:100B5A00023EF6007B080318013E003EF7007608C5
:100B6A0084008317771C8313740880007508840A2D
:100B7A00800084036D08840083176E1C83130008A9
:100B8A00F200840A0008F3007208023EF4007308B7
:100B9A000318013E003EF5007A08840083177B1C87
:100BAA00831374088007840F00080318000AFF00E3
:100BBA0075087F07800084037A08ED007B08EE0041
:100BCA00512E6D08840083176E1C83130008F200EF
:100BDA00840A0008F30072086D07F400730803180A
:100BEA00730A6E07F5007408023EF60075080318CA
:100BFA00013E003EF7007B087706031D062E7A08A1
:100C0A007606031D092E0A2E2D2E7A0884008317D4
:100C1A007B1C83130008F200840A0008F3007208A0
:100C2A00023EF40073080318013E003EF5006D0809
:100C3A00840083176E1C831374088007840F0008CE
:100C4A000318000AFF0075087F0780008403512EED
:100C5A007A08023EF2007B080318013E003EF300C8
:100C6A00720884008317731C83136D088000840A3A
:100C7A006E088000E12D7A08023EF2007B08031814
:100C8A00013E003EF300720884008317731C83132D
:100C9A008001840A8001E12D080083120313AC014C
:100CAA00AD01A201A301A601A7016D086E04031DEF
:100CBA005F2E602E632EF001F101D72F6D08AA0076
:100CCA006E08AB001C2F2A08840083172B1C831381
:100CDA000008F200840A0008F30071087306031D75
:100CEA00782E70087206031D7B2E7C2EC42E2608D1
:100CFA0027040319812E822EA82E2A08023EF2000A
:100D0A002B080318013E003EF30072088400831783
:100D1A00731C83130008F400840A0008F5002608EF
:100D2A00023EF60027080318013E003EF700760847
:100D3A0084008317771C8313740880007508840A5B
:100D4A0080008403BB2E2A08023EF2002B080318F7
:100D5A00013E003EF300720884008317731C83135C
:100D6A000008ED00840A00088403EE002A08023E07
:100D7A00F0002B080318013E003EF100D72F2A0885
:100D8A00840083172B1C83130008F200840A0008CE
:100D9A00F30073087102031DD42E7208700203183F
:100DAA00D72ED82E052F2C082D040319DD2EDE2E62
:100DBA00FD2E2C08840083172D1C83130008F200D3
:100DCA00840A0008F3002A08840083172B1C831363
:100DDA000008F400840A0008F50073087502031D70
:100DEA00F82E72087402031CFB2EFC2EFD2E052F12
:100DFA002A08AC002B08AD002608A2002708A30089
:100E0A002A08A6002B08A7002A08023EF2002B088F
:100E1A000318013E003EF300720884008317731C16
:100E2A0083130008AA00840A00088403AB002A0876
:100E3A002B04031D212F222F682E2C082D040319A1
:100E4A00272F282F602E2C08023EF2002D080318A7
:100E5A00013E003EF300720884008317731C83135B
:100E6A000008A800840A00088403A9002C0884004A
:100E7A0083172D1C83130008F200840A0008F3006C
:100E8A0070087202F4007108031C710A7302F500FB
:100E9A0000307502053003197402031C552F562FB2
:100EAA00AE2F2C08840083172D1C83130008F20030
:100EBA00840A0008F30070087202F4007108031C27
:100ECA00710A7302F5007408FE3EA0007508031843
:100EDA00013EFF3EA1002C08840083172D1C8313BA
:100EEA0070088000840A710880002C088400831727
:100EFA002D1C831300082C07F2002D080318013E4D
:100F0A00F3007208023EA40073080318013E003E73
:100F1A00A500240884008317251C83132008800059
:100F2A00840A210880002408023EF20025080318DA
:100F3A00013E003EF300720884008317731C83137A
:100F4A0028088000840A290880002408A8002508A7
:100F5A00A9002D086E06031DB42F2C086D06031D6B
:100F6A00B72FB82FBD2F2808ED002908EE00CF2F84
:100F7A002208023EF20023080318013E003EF30055
:100F8A00720884008317731C831328088000840A5C
:100F9A00290880002C08023EF0002D080318013EA3
:100FAA00003EF1000800831603130A128A15CE26A2
:100FBA000A128A11B1000A128A15CF260A128A1158
:100FCA00B2000A128A15D0260A128A11B300A901A0
:100FDA00AA01AB01AC01AD01AE01AF01B0018312B0
:100FEA000313E901EA01EB01EC01ED01EE018301D2
:100FFA000A128A11522808308A000408840A8207D1
:0A100A000034643400340034003474
:101D9C00073405340234700884008317711C8313D4
:101DAC0001308007840A0318800A0800F0007008CC
:101DBC008312031393008C1DE42EE52EE12E8C115F
:101DCC000800700884008317711C8313FF30800790
:101DDC00840F00080318000AFF00FF307F07800003
:101DEC0084030800831603130716D7308705DF30EA
:101DFC008505DF3083120313850530309400803065
:101E0C0083160313940008007008023EF200710858
:101E1C000318013E003EF300720884008317731C04
:101E2C00831301308007840A0318800A0800831288
:101E3C000313851271080A128A15DC260A128A15F8
:101E4C0073080A128A15DC260A128A1583120313E8
:101E5C00851608000830F6007608F400F5017408C1
:101E6C00F1007508F200F3010A128A151D270A12F7
:101E7C008A150130F602031D442F452F322F08001E
:101E8C007008023EF20071080318013E003EF30098
:101E9C00720884008317731C8313FF308007840F30
:101EAC0000080318000AFF00FF307F07800084033E
:101EBC000800700884008317711C8313720880005B
:101ECC00840A730880007008023EF600710803183B
:101EDC00013E003EF700760884008317771C8313BD
:101EEC0074088000840A7508800008007608FC00DD
:101EFC007708FD008C2F7C08840083177D1C8313CE
:101F0C00780880000130FC070318FD0A0130FA0242
:101F1C000030031CFB03FB027A0A031D992F7B0A7A
:101F2C00031D992F9A2F812F0800F401F501701CC5
:101F3C00A02FA12FA72F7208F4070318F50A730816
:101F4C00F50701300310F20DF30DFF3E031DA82F12
:101F5C0001300310F10CF00CFF3E031DAF2F700885
:101F6C007104031DBA2FBB2F9D2F7508F100740847
:101F7C00F00008000330F9000830F8007730F70063
:101F8C00F70BC62FF80BC62FF90BC62F83120313B2
:101F9C0085160930F1000030F200F3010A128A159F
:101FAC001D270A128A150B30F1000030F2000730A1
:101FBC00F3000A128A151D270A128A150A30F1003D
:101FCC000030F2000230F3000A128A151D270A12A3
:101FDC008A150C30F1000030F200F301F30A0A12FA
:101FEC008A151D270A128A150A128A1530270A1219
:041FFC008A1508003A
:02400E003A3D39
:00000001FF
