:100000000A128A11EA2F00308A000408840A820743
:0A001000003464340034003400347E
:1009DA000734053402348316031386018312031382
:1009EA0086010800700884008317711C8313013084
:1009FA008007840A0318800A0800F000700883122E
:100A0A00031393008C1D0A2D0B2D072D8C11080042
:100A1A00700884008317711C8313FF308007840FCA
:100A2A0000080318000AFF00FF307F0780008403D4
:100A3A000800831603130716D7308705DF308505AC
:100A4A00DF3083120313850530309400803083161B
:100A5A000313940008007008023EF200710803189C
:100A6A00013E003EF300720884008317731C83134F
:100A7A0001308007840A0318800A080083120313CE
:100A8A00851271080A128A1102250A128A1173083C
:100A9A000A128A1102250A128A1183120313851671
:100AAA0008000830F6007608F400F5017408F10031
:100ABA007508F200F3010A128A1143250A128A11F3
:100ACA000130F602031D6A2D6B2D582D080070089F
:100ADA00023EF20071080318013E003EF30072085C
:100AEA0084008317731C8313FF308007840F000868
:100AFA000318000AFF00FF307F0780008403080004
:100B0A00700884008317711C831372088000840A9A
:100B1A00730880007008023EF60071080318013E4F
:100B2A00003EF700760884008317771C8313740845
:100B3A008000840A7508800008000330F900083034
:100B4A00F8007730F700F70BA82DF80BA82DF90B52
:100B5A00A82D8312031385160930F1000030F20024
:100B6A00F3010A128A1143250A128A110B30F10085
:100B7A000030F2000730F3000A128A1143250A12E4
:100B8A008A110A30F1000030F2000230F3000A1232
:100B9A008A1143250A128A110C30F1000030F20042
:100BAA00F301F30A0A128A1143250A128A110A1258
:100BBA008A1156250A128A110800F701F8017108EC
:100BCA00FF3EF90072080318013EFF3EFA00162E96
:100BDA0077087007F3007308840083130008F6008F
:100BEA0079087007F300730884000008F400770896
:100BFA007007F5007508840074088000790870078A
:100C0A00F30073088400760880000130F7070318A0
:100C1A00F80A0030F807FF30F9070318FA0AFF301C
:100C2A00FA077808803AF3007A08803A7302031DBB
:100C3A00202E79087702031C232E242EED2D08007E
:100C4A000A128A111E250A128A110A128A11A2256B
:100C5A000A128A110A128A11F0240A128A118312BC
:100C6A0003134108B8004208B9004308BA00033028
:100C7A00BB000030BC003D30F0000030F100003015
:100C8A00F200F3000030F400F5000A128A118525FB
:100C9A000A128A113D3083120313AC000030AD00F2
:100CAA003830AE003C08B0003B08AF000A128A1187
:100CBA004E270A128A113830F000831203133C08B7
:100CCA00F2003B08F1000A128A11E2250A128A117F
:100CDA00402E0A128A11002883120313AB009D2E9C
:100CEA002408F0002508F1000A128A1130250A1298
:100CFA008A11B62E2408F0002508F1000A128A117A
:100D0A006C250A128A11B62E2408F0002508F10073
:100D1A000A128A110D250A128A11B62E2408F00029
:100D2A002508F1000A128A11F7240A128A11B62E2E
:100D3A002B08A900AA012A08003A0319A52EB62EE3
:100D4A002908003A0319752E013A03197F2E033A2E
:100D5A000319892E013A0319932E073A0319B62E5D
:100D6A00B62E0A128A1156250A128A118312031301
:100D7A002408F4002508F5002808F7002708F600DB
:100D8A002608F8000A128A11CD260A128A110800CA
:100D9A00740884008317751C83130008F900840AF9
:100DAA000008FA007908013E83120313A2007A08A8
:100DBA000318013E003EA3002D2F740884008317F8
:100DCA00751C83130008F900840A0008FA007908E0
:100DDA00831203132202FB007A08031C7A0A2302F5
:100DEA00FC007B08FF3EA0007C080318013EFF3E82
:100DFA00A1002308F2002208F10020087807F90070
:100E0A007908840083130008FA007408023EFB0084
:100E1A0075080318013E003EFC007B088400831716
:100E2A007C1C8313000A1B2F0310FA0DFF3E031DBF
:100E3A00192F7A08F3000A128A1143250A128A1115
:100E4A00013083120313A2070318A30A0030A30771
:100E5A00740884008317751C83130008F900840A38
:100E6A000008FA0076087907FB0077080318770A62
:100E7A007A07FC007C08803AFD002308803A7D024C
:100E8A00031D492F22087B0203184C2F4D2FE22EF7
:100E9A00080083120313B401B50183120313B601C8
:100EAA00B7019B2F2C08A4002D08A5002E08A60028
:100EBA003008A8002F08A70003300A128A117126E9
:100ECA000A128A11B02F2C08A4002D08A5002E089A
:100EDA00A6003008A8002F08A70000300A128A11BD
:100EEA0071260A128A11B02F2C08A4002D08A50019
:100EFA002E08A6003008A8002F08A70002300A1200
:100F0A008A1171260A128A11B02F2C08A4002D0802
:100F1A00A5002E08A6003008A8002F08A700013057
:100F2A000A128A1171260A128A11B02F8312031328
:100F3A003508003A0319A22FB02F3408003A0319D2
:100F4A00572F013A0319682F033A0319792F013AE7
:100F5A0003198A2FB02F033083120313B30008300A
:100F6A00B2007630B100B10BB82FB20BB82FB30B69
:100F7A00B82F0000013083120313B6070318B70A0B
:100F8A000030B7073708803AFF0080307F02031D20
:100F9A00D02F05303602031CD32FD42F9B2F0130BC
:100FAA0083120313B4070318B50A0030B5073508CE
:100FBA00803AFF0080307F02031DE52F043034029F
:100FCA00031CE82FE92F522F08000A128A11ED2478
:100FDA000A128A11C1000A128A11EE240A128A110F
:100FEA00C2000A128A11EF240A128A11C30083016D
:060FFA000A128A11252EE7
:02400E003A3D39
:00000001FF
