:100000000A128A11EA2F00308A000408840A820743
:0A0010000034FA34003400340034E8
:100A8A0007340534073483160313860183120313CC
:100A9A0086010800F00070088312031393008C1D6E
:100AAA00572D582D542D8C11080070088400831777
:100ABA00711C831301308007840A0318800A080016
:100ACA00700884008317711C8313FF308007840F1A
:100ADA0000080318000AFF00FF307F078000840324
:100AEA000800831603130716D7308705DF308505FC
:100AFA00DF3083120313850530309400803083166B
:100B0A0003139400080083120313851271080A1252
:100B1A008A114F250A128A1173080A128A114F255F
:100B2A000A128A1183120313851608007008023EFE
:100B3A00F20071080318013E003EF30072088400B7
:100B4A008317731C831301308007840A0318800AF1
:100B5A0008000830F6007608F400F5017408F10080
:100B6A007508F200F3010A128A1188250A128A11FD
:100B7A000130F602031DC22DC32DB02D08007008E6
:100B8A00023EF20071080318013E003EF3007208AB
:100B9A0084008317731C8313FF308007840F0008B7
:100BAA000318000AFF00FF307F0780008403080053
:100BBA00700884008317711C831372088000840AEA
:100BCA00730880007008023EF60071080318013E9F
:100BDA00003EF700760884008317771C8313740895
:100BEA008000840A7508800008000330F900083084
:100BFA00F8007730F700F70B002EF80B002EF90BF0
:100C0A00002E8312031385160930F1000030F2001A
:100C1A00F3010A128A1188250A128A110B30F1008F
:100C2A000030F2000730F3000A128A1188250A12EE
:100C3A008A110A30F1000030F2000230F3000A1281
:100C4A008A1188250A128A110C30F1000030F2004C
:100C5A00F301F30A0A128A1188250A128A110A1262
:100C6A008A11AE250A128A11080083120313A900F9
:100C7A00662E2408F0002508F1000A128A119B2525
:100C8A000A128A117F2E2408F0002508F1000A12A0
:100C9A008A11C4250A128A117F2E2408F000250819
:100CAA00F1000A128A1165250A128A117F2E240878
:100CBA00F0002508F1000A128A115A250A128A112F
:100CCA007F2E2908A700A8012808003A03196E2ECA
:100CDA007F2E2708003A03193E2E013A0319482E9F
:100CEA00033A0319522E013A03195C2E073A0319E3
:100CFA007F2E7F2E0A128A11AE250A128A118312BA
:100D0A0003132408F4002508F5000330F600003028
:100D1A00F7002608F8000A128A1196260A128A1182
:100D2A000800740884008317751C83130008F900EF
:100D3A00840A0008FA007908013E83120313A2000C
:100D4A007A080318013E003EA300F62E74088400B8
:100D5A008317751C83130008F900840A0008FA0037
:100D6A007908831203132202FB007A08031C7A0A09
:100D7A002302FC007B08FF3EA0007C080318013E0A
:100D8A00FF3EA1002308F2002208F100200878079C
:100D9A00F9007908840083130008FA007408023EF7
:100DAA00FB0075080318013E003EFC007B08840026
:100DBA0083177C1C8313000AE42E0310FA0DFF3EEE
:100DCA00031DE22E7A08F3000A128A1188250A12F4
:100DDA008A11013083120313A2070318A30A0030F1
:100DEA00A307740884008317751C83130008F9008D
:100DFA00840A0008FA0076087907FB0077080318C6
:100E0A00770A7A07FC007C08803AFD002308803ABA
:100E1A007D02031D122F22087B020318152F162F9D
:100E2A00AB2E08000A128A1176250A128A110A12B2
:100E3A008A11FA250A128A110A128A1148250A12F7
:100E4A008A11831203133608AD003708AE0038083A
:100E5A00AF0083120313B001B1013230F000003049
:100E6A00F100831203133108F3003008F20031084D
:100E7A00F5003008F4000A128A11DD250A128A11D7
:100E8A00323083120313A4000030A5002D30A600CF
:100E9A0004300A128A113A260A128A11063083127B
:100EAA000313AC001330AB00AD30AA00AA0B5B2FC2
:100EBA00AB0B5B2FAC0B5B2F323083120313A400F6
:100ECA000030A5002D30A60000300A128A113A26F9
:100EDA000A128A11063083120313AC001330AB00D6
:100EEA00AD30AA00AA0B772FAB0B772FAC0B772F5D
:100EFA00323083120313A4000030A5002D30A6005F
:100F0A0003300A128A113A260A128A11063083120B
:100F1A000313AC001330AB00AD30AA00AA0B932F19
:100F2A00AB0B932FAC0B932F323083120313A40015
:100F3A000030A5002D30A60001300A128A113A2687
:100F4A000A128A11063083120313AC001330AB0065
:100F5A00AD30AA00AA0BAF2FAB0BAF2FAC0BAF2F44
:100F6A00323083120313A4000030A5002D30A600EE
:100F7A0002300A128A113A260A128A11063083129C
:100F8A000313AC001330AB00AD30AA00AA0BCB2F71
:100F9A00AB0BCB2FAC0BCB2F013083120313B00753
:100FAA000318B10A0030B1073108803AFF008030D7
:100FBA007F02031DE22F05303002031CE52FE62FC6
:100FCA00322F2E2F0A128A1100280A128A11452559
:100FDA000A128A11B6000A128A1146250A128A11C1
:100FEA00B7000A128A1147250A128A11B80083012A
:060FFA000A128A11172FF4
:02400E003A3D39
:00000001FF
