:100000000A128A11DC2F00308A000408840A820751
:100010000034E834033400340034643400340034F1
:020020000034AA
:1000D4000734053402348316031386018312031391
:1000E40086010800700884008317711C8313013093
:1000F4008007840A0318800A0800F000700883123D
:10010400031393008C1D8728882884288C110800E9
:10011400700884008317711C8313FF308007840FD9
:1001240000080318000AFF00FF307F0780008403E3
:100134000800831603130716D7308705DF308505BB
:10014400DF3083120313850530309400803083162A
:100154000313940008007008023EF20071080318AB
:10016400013E003EF300720884008317731C83135E
:1001740001308007840A0318800A080083120313DD
:10018400851271080A128A117F200A128A117308D3
:100194000A128A117F200A128A1183120313851608
:1001A40008000830F6007608F400F5017408F10040
:1001B4007508F200F3010A128A11C0200A128A118A
:1001C4000130F602031DE728E828D5280800700846
:1001D400023EF20071080318013E003EF30072086B
:1001E40084008317731C8313FF308007840F000877
:1001F4000318000AFF00FF307F0780008403080013
:10020400700884008317711C831372088000840AA9
:10021400730880007008023EF60071080318013E5E
:10022400003EF700760884008317771C8313740854
:100234008000840A7508800008007608FC007708AE
:10024400FD002F297C08840083177D1C8313780804
:1002540080000130FC070318FD0A0130FA02003067
:10026400031CFB03FB027A0A031D3C297B0A031DC2
:100274003C293D2924290800F401F501701C432977
:1002840044294A297208F4070318F50A7308F50784
:1002940001300310F20DF30DFF3E031D4B29013015
:1002A4000310F10CF00CFF3E031D52297008710479
:1002B400031D5D295E2940297508F1007408F000CA
:1002C40008000330F9000830F8007730F700F70B26
:1002D4006929F80B6929F90B692983120313851617
:1002E4000930F1000030F200F3010A128A11C02033
:1002F4000A128A110B30F1000030F2000730F300CB
:100304000A128A11C0200A128A110A30F100003040
:10031400F2000230F3000A128A11C0200A128A1174
:100324000C30F1000030F200F301F30A0A128A11D2
:10033400C0200A128A110A128A11D3200A128A11C1
:100344000800831203133908F1003808F0003B0851
:10035400F3003A08F2000A128A113E210A128A11A5
:100364007108F9007008F8000A128A11FB230A12B6
:100374008A11780883120313BC007908BD003C0875
:100384003D040319C629C729E4293C08F6003D08A1
:10039400F7000030F800F9003908F1003808F000DF
:1003A4003B08F3003A08F2000A128A113E210A12AD
:1003B4008A117108FB007008FA000A128A111F21C1
:1003C4000A128A11831203133C08B8003D08B900CD
:1003D40008007008840083130008F100840A0008F0
:1003E400F200831203135F086004031DFA29FB293A
:1003F400FF297030DF000130E00000307202043069
:10040400031971020318072A082A0C2A0430F10080
:100414000030F20071085F02F3006008031C6003FF
:10042400F40001307402103003197302031C1B2AF8
:100434001C2A262A60087402031D222A5F087302FC
:10044400031C252A262A2D2A0C30E5000030E6005C
:10045400F001F101352A7308DF007408E0005F0839
:10046400F0006008F10008000A128A119B200A12A9
:100474008A110A128A1163210A128A110A128A1134
:100484006D200A128A11831203136908D2006A08C4
:10049400D3006B08D4000330D5000030D6005730A9
:1004A400F0000030F1000030F200F3000030F400FE
:1004B400F5000A128A1102210A128A11523083129B
:1004C4000313BE005608C0005508BF000A128A1163
:1004D400AB240A128A11573083120313AC00003084
:1004E400AD005230AE005608B0005508AF000A12F5
:1004F4008A115F230A128A11512A0A128A110028CA
:1005040083120313AB00AE2A2408F0002508F1007F
:100514000A128A11AD200A128A11C72A2408F0008F
:100524002508F1000A128A11E9200A128A11C72A41
:100534002408F0002508F1000A128A118A200A1200
:100544008A11C72A2408F0002508F1000A128A112A
:1005540074200A128A11C72A2B08A900AA012A08A2
:10056400003A0319B62AC72A2908003A0319862A29
:10057400013A0319902A033A03199A2A013A0319F2
:10058400A42A073A0319C72AC72A0A128A11D320B0
:100594000A128A11831203132408F4002508F500B3
:1005A4002808F7002708F6002608F8000A128A111E
:1005B400DE220A128A110800740884008317751C4D
:1005C40083130008F900840A0008FA007908013E40
:1005D40083120313A2007A080318013E003EA3000D
:1005E4003E2B740884008317751C83130008F900DC
:1005F400840A0008FA007908831203132202FB001C
:100604007A08031C7A0A2302FC007B08FF3EA00040
:100614007C080318013EFF3EA1002308F2002208D3
:10062400F10020087807F900790884008313000892
:10063400FA007408023EFB0075080318013E003EF0
:10064400FC007B08840083177C1C8313000A2C2B7A
:100654000310FA0DFF3E031D2A2B7A08F3000A1239
:100664008A11C0200A128A11013083120313A207CF
:100674000318A30A0030A307740884008317751CA9
:1006840083130008F900840A0008FA007608790741
:10069400FB0077080318770A7A07FC007C08803A85
:1006A400FD002308803A7D02031D5A2B22087B0299
:1006B40003185D2B5E2BF32A080083120313B40185
:1006C400B50183120313B601B701AC2B2C08A400A7
:1006D4002D08A5002E08A6003008A8002F08A700A2
:1006E40003300A128A1182220A128A11C12B2C08A1
:1006F400A4002D08A5002E08A6003008A8002F0885
:10070400A70000300A128A1182220A128A11C12B10
:100714002C08A4002D08A5002E08A6003008A80067
:100724002F08A70002300A128A1182220A128A11A3
:10073400C12B2C08A4002D08A5002E08A600300803
:10074400A8002F08A70001300A128A1182220A1277
:100754008A11C12B831203133508003A0319B32BF2
:10076400C12B3408003A0319682B013A0319792B79
:10077400033A03198A2B013A03199B2BC12B03302B
:1007840083120313B3000830B2007630B100B10B0A
:10079400C92BB20BC92BB30BC92B00000130831238
:1007A4000313B6070318B70A0030B7073708803AAF
:1007B400FF0080307F02031DE12B05303602031C4D
:1007C400E42BE52BAC2B013083120313B40703187D
:1007D400B50A0030B5073508803AFF0080307F0243
:1007E400031DF62B04303402031CF92BFA2B632B64
:1007F400080083120313B201B30178087904031DBE
:10080400042C052C0B2C0130F8070318F90A0030CE
:10081400F907003079020230031978020318132C07
:10082400142C192C0230F8000030F9002F2C790810
:10083400FB007808FA00FA09FB0900307B02023059
:1008440003197A020318272C282C2F2C0C30E500CE
:100854000030E600F801F901AA2C7908F1007808C3
:10086400F0000A128A1156260A128A11700883129D
:100874000313B4007108B50034083504031D432C78
:10088400442CA62C63086102FA006408031C640A61
:100894006202FB0079087B02031D522C78087A025D
:1008A4000318552C562C872C7808023EAE00790884
:1008B4000318013E003EAF002E30F0000A128A11E8
:1008C400EB210A128A11700883120313B60071080F
:1008D400B70036083704031D702C712C722C2C2C95
:1008E40062083706031D782C6108360603197B2C31
:1008F4007C2C802C3608E3003708E4002E083607E9
:10090400E10037080318013EE2006308B4006408FC
:10091400B5003408B0003508B100300884008317EE
:10092400311C831378088000840A7908800002301F
:10093400B0070318B10A3008B4003108B5007808CC
:10094400023EE3070318E40A3408F8003508F90006
:100954000800831203134008B9003F08B8000130AF
:10096400BA000030BB000A128A11A3210A128A11AC
:10097400831203133808CE003908CF004E084F0401
:100984000319C52CC62C5C2D3F08FF3ED00040083F
:100994000318013EFF3ED100D11FD12CD22CD32C01
:1009A400262D3F08FF3ECA0040080318013EFF3EC3
:1009B400CB00C801C901CB1FE02CE12CE22C1F2D78
:1009C40048083E07C1004108840083130008C200A0
:1009D400500AEE2C0310C20CFF3E031DEC2C4208FF
:1009E4000139C3004A0AF82C0310C30DFF3E031D4E
:1009F400F62C4308C40050084E07C6004F08C50033
:100A04000318C50AD01F072DC50383120313450815
:100A1400C700460884008317471C831344088004D6
:100A2400FF30CA070318CB0AFF30CB070130C807D1
:100A34000318C90A0030C907DD2CFF30D00703189A
:100A4400D10AFF30D107CE2CCC01CD014E2D83121B
:100A540003134C084E07C2004F08C1000318C10A13
:100A6400CC1F352DC103831203134108C300420870
:100A740084008317431C83130008C4004C083E07FA
:100A8400C500450884004408831380000130CC0766
:100A94000318CD0A0030CD074D08803AC100400844
:100AA400803A4102031D582D3F084C02031C5B2D64
:100AB4005C2D292D831203134E08F0004F08F1001A
:100AC4000A128A1168250A128A1108007008F800AF
:100AD4007108F90070087104031D712D722D732DB6
:100AE400552EFE30F20072087807FA007908F300F8
:100AF4000318F30AF21BF3037308FB0083120313B6
:100B0400670868040319872D882D442E7A08840009
:100B140083177B1C831300087807F20079080318F5
:100B2400013EF30073086806031D9A2D72086706D8
:100B3400031D9D2D9E2DEA2D6708023EF2006808D4
:100B44000318013E003EF300720884008317731CEF
:100B540083130008F400840A0008F5007A08023EB2
:100B6400F6007B080318013E003EF7007608840077
:100B74008317771C8313740880007508840A800027
:100B84008403670884008317681C83130008F20039
:100B9400840A0008F3007208023EF4007308031884
:100BA400013E003EF5007A08840083177B1C831302
:100BB40074088007840F00080318000AFF007508F2
:100BC4007F07800084037A08E7007B08E800552E3D
:100BD400670884008317681C83130008F200840AE2
:100BE4000008F30072086707F40073080318730A17
:100BF4006807F5007408023EF60075080318013E04
:100C0400003EF7007B087706031D0A2E7A08760655
:100C1400031D0D2E0E2E312E7A08840083177B1CA3
:100C240083130008F200840A0008F3007208023EED
:100C3400F40073080318013E003EF50067088400C1
:100C44008317681C831374088007840F0008031833
:100C5400000AFF0075087F0780008403552E7A0878
:100C6400023EF2007B080318013E003EF3007208C6
:100C740084008317731C831367088000840A680840
:100C84008000E52D7A08023EF2007B080318013E3D
:100C9400003EF300720884008317731C83138001E1
:100CA400840A8001E52D080083120313AC01AD0111
:100CB400A201A301A601A70167086804031D632E0E
:100CC400642E672EF001F101DB2F6708AA00680883
:100CD400AB00202F2A08840083172B1C83130008E1
:100CE400F200840A0008F30071087306031D7C2EC9
:100CF40070087206031D7F2E802EC82E2608270436
:100D04000319852E862EAC2E2A08023EF2002B08EB
:100D14000318013E003EF300720884008317731C1D
:100D240083130008F400840A0008F5002608023E34
:100D3400F60027080318013E003EF70076088400F9
:100D44008317771C8313740880007508840A800055
:100D54008403BF2E2A08023EF2002B080318013E2A
:100D6400003EF300720884008317731C8313000889
:100D7400E700840A00088403E8002A08023EF00021
:100D84002B080318013E003EF100DB2F2A088400E3
:100D940083172B1C83130008F200840A0008F30055
:100DA40073087102031DD82E720870020318DB2E1B
:100DB400DC2E092F2C082D040319E12EE22E012F1D
:100DC4002C08840083172D1C83130008F200840A66
:100DD4000008F3002A08840083172B1C83130008DF
:100DE400F400840A0008F50073087502031DFC2E44
:100DF40072087402031CFF2E002F012F092F2A08EA
:100E0400AC002B08AD002608A2002708A3002A087E
:100E1400A6002B08A7002A08023EF2002B0803189C
:100E2400013E003EF300720884008317731C831391
:100E34000008AA00840A00088403AB002A082B04D3
:100E4400031D252F262F6C2E2C082D0403192B2F60
:100E54002C2F642E2C08023EF2002D080318013EAC
:100E6400003EF300720884008317731C8313000888
:100E7400A800840A00088403A9002C0884008317AE
:100E84002D1C83130008F200840A0008F300700884
:100E94007202F4007108031C710A7302F500003039
:100EA4007502053003197402031C592F5A2FB22FEF
:100EB4002C08840083172D1C83130008F200840A75
:100EC4000008F30070087202F4007108031C710A30
:100ED4007302F5007408FE3EA00075080318013E75
:100EE400FF3EA1002C08840083172D1C8313700877
:100EF4008000840A710880002C08840083172D1C4C
:100F0400831300082C07F2002D080318013EF30098
:100F14007208023EA40073080318013E003EA500B7
:100F2400240884008317251C831320088000840A66
:100F3400210880002408023EF20025080318013E1F
:100F4400003EF300720884008317731C831328087F
:100F54008000840A290880002408A8002508A90024
:100F64002D086806031DB82F2C086706031DBB2F28
:100F7400BC2FC12F2808E7002908E800D32F220836
:100F8400023EF20023080318013E003EF3007208FB
:100F940084008317731C831328088000840A29089B
:100FA40080002C08023EF0002D080318013E003E8C
:100FB400F10008000A128A116A200A128A11E90053
:100FC4000A128A116B200A128A11EA000A128A1183
:100FD4006C200A128A11EB00DB01DC01DD01DE0169
:100FE400DF01E001E101E201E301E401E501E601E1
:0C0FF400E701E80183010A128A11362A85
:02400E003A3D39
:00000001FF
