:100000000A128A11EA2F00308A000408840A820743
:0A001000003464340034003400347E
:100A7A0007340534073483160313860183120313DC
:100A8A0086010800F00070088312031393008C1D7E
:100A9A004F2D502D4C2D8C1108007008840083179F
:100AAA00711C831301308007840A0318800A080026
:100ABA00700884008317711C8313FF308007840F2A
:100ACA0000080318000AFF00FF307F078000840334
:100ADA000800831603130716D7308705DF3085050C
:100AEA00DF3083120313850530309400803083167B
:100AFA0003139400080083120313851271080A1263
:100B0A008A1147250A128A1173080A128A1147257F
:100B1A000A128A1183120313851608007008023E0E
:100B2A00F20071080318013E003EF30072088400C7
:100B3A008317731C831301308007840A0318800A01
:100B4A0008000830F6007608F400F5017408F10090
:100B5A007508F200F3010A128A1180250A128A1115
:100B6A000130F602031DBA2DBB2DA82D080070080E
:100B7A00023EF20071080318013E003EF3007208BB
:100B8A0084008317731C8313FF308007840F0008C7
:100B9A000318000AFF00FF307F0780008403080063
:100BAA00700884008317711C831372088000840AFA
:100BBA00730880007008023EF60071080318013EAF
:100BCA00003EF700760884008317771C83137408A5
:100BDA008000840A7508800008000330F900083094
:100BEA00F8007730F700F70BF82DF80BF82DF90B12
:100BFA00F82D8312031385160930F1000030F20034
:100C0A00F3010A128A1180250A128A110B30F100A7
:100C1A000030F2000730F3000A128A1180250A1206
:100C2A008A110A30F1000030F2000230F3000A1291
:100C3A008A1180250A128A110C30F1000030F20064
:100C4A00F301F30A0A128A1180250A128A110A127A
:100C5A008A11A6250A128A11080083120313AB000F
:100C6A005E2E2408F0002508F1000A128A11932545
:100C7A000A128A11772E2408F0002508F1000A12B8
:100C8A008A11BC250A128A11772E2408F000250839
:100C9A00F1000A128A115D250A128A11772E240898
:100CAA00F0002508F1000A128A1152250A128A1147
:100CBA00772E2B08A900AA012A08003A0319662EE2
:100CCA00772E2908003A0319362E013A0319402EC5
:100CDA00033A03194A2E013A0319542E073A031903
:100CEA00772E772E0A128A11A6250A128A118312E2
:100CFA0003132408F4002508F5002808F70027083C
:100D0A00F6002608F8000A128A118E260A128A119B
:100D1A000800740884008317751C83130008F900FF
:100D2A00840A0008FA007908013E83120313A2001C
:100D3A007A080318013E003EA300EE2E74088400D0
:100D4A008317751C83130008F900840A0008FA0047
:100D5A007908831203132202FB007A08031C7A0A19
:100D6A002302FC007B08FF3EA0007C080318013E1A
:100D7A00FF3EA1002308F2002208F10020087807AC
:100D8A00F9007908840083130008FA007408023E07
:100D9A00FB0075080318013E003EFC007B08840036
:100DAA0083177C1C8313000ADC2E0310FA0DFF3E06
:100DBA00031DDA2E7A08F3000A128A1180250A1214
:100DCA008A11013083120313A2070318A30A003001
:100DDA00A307740884008317751C83130008F9009D
:100DEA00840A0008FA0076087907FB0077080318D6
:100DFA00770A7A07FC007C08803AFD002308803ACB
:100E0A007D02031D0A2F22087B0203180D2F0E2FC5
:100E1A00A32E08000A128A116E250A128A110A12D2
:100E2A008A11F2250A128A110A128A1140250A1217
:100E3A008A11831203133C08AF003D08B0003E0834
:100E4A00B1000330B6000030B70083120313B201B9
:100E5A00B3013830F0000030F1000030F200F30046
:100E6A000030F400F5000A128A11D5250A128A11F7
:100E7A00383083120313A4000030A5002F30A600D7
:100E8A003708A8003608A70004300A128A11322649
:100E9A000A128A1183120313B401B501982F38304C
:100EAA00A4000030A5002F30A6003708A800360895
:100EBA00A70003300A128A1132260A128A11AD2FAC
:100ECA003830A4000030A5002F30A6003708A8004B
:100EDA003608A70000300A128A1132260A128A112D
:100EEA00AD2F3830A4000030A5002F30A6003708F7
:100EFA00A8003608A70002300A128A1132260A12FE
:100F0A008A11AD2F3830A4000030A5002F30A6007A
:100F1A003708A8003608A70001300A128A113226BB
:100F2A000A128A11AD2F831203133308003A0319E8
:100F3A009F2FAD2F3208003A0319542F013A031993
:100F4A00652F033A0319762F013A0319872FAD2F1C
:100F5A00033083120313AE000830AD007630AC00C4
:100F6A00AC0BB52FAD0BB52FAE0BB52F0000013072
:100F7A0083120313B4070318B50A0030B5073508FE
:100F8A00803AFF0080307F02031DCD2F05303402E6
:100F9A00031CD02FD12F982F013083120313B207CD
:100FAA000318B30A0030B3073308803AFF008030D1
:100FBA007F02031DE22F04303202031CE52FE62FC5
:100FCA004F2F2A2F0A128A1100280A128A113D2548
:100FDA000A128A11BC000A128A113E250A128A11C3
:100FEA00BD000A128A113F250A128A11BE00830126
:060FFA000A128A110F2FFC
:02400E003A3D39
:00000001FF
