:060000000A128A11D82F3C
:10000800F00070088312031393008C1D0C280D2830
:1000180009288C110800831603130716D7308705A3
:10002800DF308505DF3083120313850530309400F7
:10003800803083160313940008007008023EF20013
:1000480071080318013E003EF3007208840083170C
:10005800731C831301308007840A0318800A080080
:1000680083120313851271080A128A1104200A12D6
:100078008A1173080A128A1104200A128A1183123B
:100088000313851608000830F6007608F400F50119
:100098007408F1007508F200F3010A128A1134207D
:1000A8000A128A110130F602031D5B285C284928D0
:1000B80008007008023EF20071080318013E003E75
:1000C800F300720884008317731C8313FF308007C2
:1000D800840F00080318000AFF00FF307F07800024
:1000E80084030800700884008317711C8313720846
:1000F8008000840A730880007008023EF6007108C8
:100108000318013E003EF700760884008317771C29
:10011800831374088000840A750880000800760834
:10012800FC007708FD00A3287C08840083177D1C49
:100138008313780880000130FC070318FD0A01309A
:10014800FA020030031CFB03FB027A0A031DB028E5
:100158007B0A031DB028B12898280800F401F5018E
:10016800701CB728B828BE287208F4070318F50AC7
:100178007308F50701300310F20DF30DFF3E031D60
:10018800BF2801300310F10CF00CFF3E031DC628F8
:1001980070087104031DD128D228B4287508F1000D
:1001A8007408F00008000330F9000830F8007730D0
:1001B800F700F70BDD28F80BDD28F90BDD28831293
:1001C800031385160930F1000030F200F3010A121A
:1001D8008A1134200A128A110B30F1000030F20023
:1001E8000730F3000A128A1134200A128A110A30E1
:1001F800F1000030F2000230F3000A128A113420B4
:100208000A128A110C30F1000030F200F301F30AEF
:100218000A128A1134200A128A110A128A114720F6
:100228000A128A110800F701F8017108FF3EF90067
:1002380072080318013EFF3EFA004B297708700741
:10024800F3007308840083130008F6007908700728
:10025800F300730884000008F40077087007F500BD
:10026800750884007408800079087007F300730823
:100278008400760880000130F7070318F80A003078
:10028800F807FF30F9070318FA0AFF30FA07780869
:10029800803AF3007A08803A7302031D55297908D9
:1002A8007702031C582959292229080083120313AD
:1002B8003908F1003808F0003B08F3003A08F2006A
:1002C8000A128A11B2200A128A117108F9007008FC
:1002D800F8000A128A119A240A128A1178088312DD
:1002E8000313BC007908BD003C083D0403197D29AF
:1002F8007E299B293C08F6003D08F7000030F800ED
:10030800F9003908F1003808F0003B08F3003A0812
:10031800F2000A128A11B2200A128A117108FB002F
:100328007008FA000A128A1193200A128A1183129D
:1003380003133C08B8003D08B900080070088400A1
:1003480083130008F100840A0008F20083120313E3
:1003580069086A04031DB129B229B6297030E90079
:100368000130EA00003072020430031971020318E8
:10037800BE29BF29C3290430F1000030F2007108FA
:100388006902F3006A08031C6A03F400013074026E
:10039800103003197302031CD229D329DD296A08F6
:1003A8007402031DD92969087302031CDC29DD299D
:1003B800E6290C3083160313A6000030A700F001CD
:1003C800F101EE297308E9007408EA006908F000F1
:1003D8006A08F10008000A128A110F200A128A110D
:1003E8000A128A11D7200A128A110A128A15DD27E1
:1003F8000A128A1183160313280883120313DF00D5
:1004080083160313290883120313E00083160313CA
:100418002A0883120313E1000330E2000030E300EE
:100428000130E4006530F0000030F1000030F200E7
:10043800F3000030F400F5000A128A1176200A123F
:100448008A11653083120313D2000030D3005F3065
:10045800D4006308D6006208D5006430D7000A12B9
:100468008A11D6230A128A11162A0A128A1100281A
:1004780083120313AB00682A2408F0002508F10052
:100488000A128A1121200A128A11812A2408F000EE
:100498002508F1000A128A115D200A128A11812AA0
:1004A8002408F0002508F1000A128A15EF270A121D
:1004B8008A11812A2408F0002508F1000A128A15F9
:1004C800E4270A128A11812A2B08A900AA012A08FE
:1004D800003A0319702A812A2908003A0319402A88
:1004E800013A03194A2A033A0319542A013A03190B
:1004F8005E2A073A0319812A812A0A128A1147209B
:100508000A128A11831203132408F4002508F5003F
:100518002808F7002708F6002608F8000A128A11AA
:1005280098220A128A110800740884008317751C1F
:1005380083130008F900840A0008FA007908013ECC
:1005480083120313A2007A080318013E003EA30099
:10055800F82A740884008317751C83130008F900AF
:10056800840A0008FA007908831203132202FB00A8
:100578007A08031C7A0A2302FC007B08FF3EA000CD
:100588007C080318013EFF3EA1002308F200220860
:10059800F10020087807F90079088400831300081F
:1005A800FA007408023EFB0075080318013E003E7D
:1005B800FC007B08840083177C1C8313000AE62A4E
:1005C8000310FA0DFF3E031DE42A7A08F3000A120D
:1005D8008A1134200A128A11013083120313A207E8
:1005E8000318A30A0030A307740884008317751C36
:1005F80083130008F900840A0008FA0076087907CE
:10060800FB0077080318770A7A07FC007C08803A11
:10061800FD002308803A7D02031D142B22087B026B
:100628000318172B182BAD2A080083120313400850
:10063800B9003F08B8000130BA000030BB000A1208
:100648008A115A210A128A11831203133808CE001C
:100658003908CF004E084F040319332B342BCA2B0B
:100668003F08FF3ED00040080318013EFF3ED1007E
:10067800D11F3F2B402B412B942B3F08FF3ECA0034
:1006880040080318013EFF3ECB00C801C901CB1F3B
:100698004E2B4F2B502B8D2B48083E07C10041088D
:1006A800840083130008C200500A5C2B0310C20C9C
:1006B800FF3E031D5A2B42080139C3004A0A662B24
:1006C8000310C30DFF3E031D642B4308C4005008EC
:1006D8004E07C6004F08C5000318C50AD01F752B62
:1006E800C503831203134508C7004608840083170F
:1006F800471C831344088004FF30CA070318CB0A39
:10070800FF30CB070130C8070318C90A0030C907F2
:100718004B2BFF30D0070318D10AFF30D1073C2BF1
:10072800CC01CD01BC2B831203134C084E07C20029
:100738004F08C1000318C10ACC1FA32BC1038312A1
:1007480003134108C300420884008317431C831322
:100758000008C4004C083E07C5004508840044084A
:10076800831380000130CC070318CD0A0030CD0771
:100778004D08803AC1004008803A4102031DC62B4B
:100788003F084C02031CC92BCA2B972B8312031357
:100798004E08F0004F08F1000A128A1164250A1267
:1007A8008A11080083120313DD01DE01831203138B
:1007B800DB01DC01232C5208A4005308A5005408CF
:1007C800A6005608A8005508A70003300A128A1187
:1007D8003C220A128A11382C5208A4005308A5009A
:1007E8005408A6005608A8005508A70000300A12A9
:1007F8008A113C220A128A11382C5208A400530884
:10080800A5005408A6005608A8005508A7000230FD
:100818000A128A113C220A128A11382C5208A400A2
:100828005308A5005408A6005608A8005508A700B4
:1008380001300A128A113C220A128A11382C8312BA
:1008480003135E08003A03192A2C382C5D08003A75
:100858000319DF2B013A0319F02B033A0319012C72
:10086800013A0319122C382C043083120313DA00CE
:100878000C30D9003330D800D80B402CD90B402C81
:10088800DA0B402C013083120313DB070318DC0A50
:100898000030DC075C08803AFF0080307F02031DCF
:1008A800572C05305B02031C5A2C5B2C232C83121B
:1008B80003135D085E04031D622C632C792C570812
:1008C80084008313000803196A2C6B2C792C5408B4
:1008D800F0005608F2005508F1000A128A11172193
:1008E8000A128A1183120313D7015408BE0056084E
:1008F800C0005508BF000A128A1119230A128A116A
:10090800013083120313DD070318DE0A0030DE0707
:100918005E08803AFF0080307F02031D952C04306A
:100928005D02031C982C992CDA2B08008312031300
:10093800B201B30178087904031DA32CA42CAA2CB6
:100948000130F8070318F90A0030F9070030790276
:100958000230031978020318B22CB32CB82C0230D9
:10096800F8000030F900D02C7908FB007808FA006C
:10097800FA09FB0900307B02023003197A020318D6
:10098800C62CC72CD02C0C3083160313A6000030BD
:10099800A700F801F901632D7908F1007808F00043
:1009A8000A128A1152260A128A1170088312031336
:1009B800B4007108B50034083504031DE42CE52C97
:1009C8005F2D6B08831603132402FA0083120313A6
:1009D8006C08031C6C0A831603132502FB007908B4
:1009E8007B02031DF92C78087A020318FC2CFD2CD5
:1009F8003E2D7808023E83120313AE0079080318CF
:100A0800013E003EAF002E30F0000A128A11A221EA
:100A18000A128A11700883120313B6007108B7000E
:100A280036083704031D192D1A2D1B2DCD2C8316BE
:100A380003132508831203133706031D292D831674
:100A48000313240883120313360603192C2D2D2DA6
:100A5800312D3608EB003708EC002E0836078316D0
:100A68000313A4008312031337080318013E8316E7
:100A78000313A500831203136B08B4006C08B500B8
:100A88003408B0003508B100300884008317311CE1
:100A9800831378088000840A790880000230B00740
:100AA8000318B10A3008B4003108B5007808023ECE
:100AB800EB070318EC0A3408F8003508F9000800B9
:100AC8007008F8007108F90070087104031D6D2D95
:100AD8006E2D6F2D512EFE30F20072087807FA0045
:100AE8007908F3000318F30AF21BF3037308FB00F9
:100AF800831203136D086E040319832D842D402E71
:100B08007A08840083177B1C831300087807F20097
:100B180079080318013EF30073086E06031D962D2D
:100B280072086D06031D992D9A2DE62D6D08023E5B
:100B3800F2006E080318013E003EF30072088400BC
:100B48008317731C83130008F400840A0008F50057
:100B58007A08023EF6007B080318013E003EF700C3
:100B6800760884008317771C83137408800075083F
:100B7800840A800084036D08840083176E1C831325
:100B88000008F200840A0008F3007208023EF4002C
:100B980073080318013E003EF5007A0884008317A5
:100BA8007B1C831374088007840F00080318000A4D
:100BB800FF0075087F07800084037A08ED007B0832
:100BC800EE00512E6D08840083176E1C83130008F5
:100BD800F200840A0008F30072086D07F400730835
:100BE8000318730A6E07F5007408023EF6007508CC
:100BF8000318013E003EF7007B087706031D062E0A
:100C08007A087606031D092E0A2E2D2E7A088400EE
:100C180083177B1C83130008F200840A0008F30082
:100C28007208023EF40073080318013E003EF50006
:100C38006D08840083176E1C831374088007840F63
:100C480000080318000AFF0075087F078000840366
:100C5800512E7A08023EF2007B080318013E003E3E
:100C6800F300720884008317731C83136D088000D7
:100C7800840A6E088000E12D7A08023EF2007B08A3
:100C88000318013E003EF300720884008317731CAA
:100C980083138001840A8001E12D08008312031365
:100CA800AC01AD01A201A301A601A7016D086E0464
:100CB800031D5F2E602E632EF001F101D72F6D0802
:100CC800AA006E08AB001C2F2A08840083172B1C6F
:100CD80083130008F200840A0008F3007108730601
:100CE800031D782E70087206031D7B2E7C2EC42EE1
:100CF800260827040319812E822EA82E2A08023ED0
:100D0800F2002B080318013E003EF300720884002D
:100D18008317731C83130008F400840A0008F50085
:100D28002608023EF60027080318013E003EF70099
:100D3800760884008317771C83137408800075086D
:100D4800840A80008403BB2E2A08023EF2002B0886
:100D58000318013E003EF300720884008317731CD9
:100D680083130008ED00840A00088403EE002A08B3
:100D7800023EF0002B080318013E003EF100D72F79
:100D88002A08840083172B1C83130008F200840AA6
:100D98000008F30073087102031DD42E7208700254
:100DA8000318D72ED82E052F2C082D040319DD2E55
:100DB800DE2EFD2E2C08840083172D1C83130008BB
:100DC800F200840A0008F3002A08840083172B1C09
:100DD80083130008F400840A0008F50073087502FC
:100DE800031DF82E72087402031CFB2EFC2EFD2E28
:100DF800052F2A08AC002B08AD002608A2002708FA
:100E0800A3002A08A6002B08A7002A08023EF20021
:100E18002B080318013E003EF30072088400831774
:100E2800731C83130008AA00840A00088403AB001B
:100E38002A082B04031D212F222F682E2C082D048D
:100E48000319272F282F602E2C08023EF2002D08A8
:100E58000318013E003EF300720884008317731CD8
:100E680083130008A800840A00088403A9002C083A
:100E7800840083172D1C83130008F200840A0008DD
:100E8800F30070087202F4007108031C710A7302FF
:100E9800F50000307502053003197402031C552F44
:100EA800562FAE2F2C08840083172D1C831300089F
:100EB800F200840A0008F30070087202F400710856
:100EC800031C710A7302F5007408FE3EA000750841
:100ED8000318013EFF3EA1002C08840083172D1C37
:100EE800831370088000840A710880002C0884002D
:100EF80083172D1C831300082C07F2002D080318F4
:100F0800013EF3007208023EA40073080318013E74
:100F1800003EA500240884008317251C831320089D
:100F28008000840A210880002408023EF200250877
:100F38000318013E003EF300720884008317731CF7
:100F4800831328088000840A290880002408A80040
:100F58002508A9002D086E06031DB42F2C086D0660
:100F6800031DB72FB82FBD2F2808ED002908EE0064
:100F7800CF2F2208023EF20023080318013E003E4C
:100F8800F300720884008317731C831328088000F9
:100F9800840A290880002C08023EF0002D08031856
:100FA800013E003EF1000800831603130A128A1559
:100FB800DA270A128A11A8000A128A15DB270A12F0
:100FC8008A11A9000A128A15DC270A128A11AA00B6
:100FD800A001A101A201A301A401A501A601A701E5
:100FE80083120313E901EA01EB01EC01ED01EE01C3
:100FF80083010A128A11EF2908308A000408840A3A
:0C100800820700349634003400340034B9
:101FB4000734053402348316031386018312031392
:101FC40086010800700884008317711C8313013094
:101FD4008007840A0318800A0800700884008317A5
:101FE400711C8313FF308007840F00080318000A54
:0C1FF400FF00FF307F078000840308001E
:02400E003A3D39
:00000001FF
