:060000000A128A11D82F3C
:10000800073405340234700884008317711C831385
:10001800FF308007840F00080318000AFF00FF3034
:100028007F07800084030800831603130716D73060
:100038008705DF308505DF308312031385053030EF
:100048009400803083160313940008007008023E61
:10005800F20071080318013E003EF30072088400A4
:100068008317731C831301308007840A0318800ADE
:10007800080083120313851271080A128A15F527DE
:100088000A128A1173080A128A15F5270A128A11A8
:1000980083120313851608000830F6007608F4006A
:1000A800F5017408F1007508F200F3010A128A11CB
:1000B8003D200A128A110130F602031D64286528C2
:1000C800522808007008023EF20071080318013E29
:1000D800003EF300720884008317731C8313FF30FB
:1000E8008007840F00080318000AFF00FF307F070D
:1000F800800084030800700884008317711C831330
:1001080072088000840A730880007008023EF600B6
:1001180071080318013E003EF70076088400831733
:10012800771C831374088000840A7508800008000F
:100138007608FC007708FD00AC287C08840083174B
:100148007D1C8313780880000130FC070318FD0A22
:100158000130FA020030031CFB03FB027A0A031D7C
:10016800B9287B0A031DB928BA28A1280800F40178
:10017800F501701CC028C128C7287208F4070318A5
:10018800F50A7308F50701300310F20DF30DFF3E71
:10019800031DC82801300310F10CF00CFF3E031DAD
:1001A800CF2870087104031DDA28DB28BD287508DC
:1001B800F1007408F0000800FA01FB0104297A082C
:1001C8007107F6007208F5000318F50AFA1FED2802
:1001D800F5037508F700760884008317771C8313E6
:1001E8000008F8007A087007F90079088400780890
:1001F800831380000130FA070318FB0A0030FB075D
:100208007B08803AF5007408803A7502031D0E29B0
:1002180073087A02031C11291229E3280800033005
:10022800F9000830F8007730F700F70B1929F80BB8
:100238001929F90B19298312031385160930F100BE
:100248000030F200F3010A128A113D200A128A11C5
:100258000B30F1000030F2000730F3000A128A1167
:100268003D200A128A110A30F1000030F2000230F3
:10027800F3000A128A113D200A128A110C30F1008B
:100288000030F200F301F30A0A128A113D200A1223
:100298008A110A128A1150200A128A110800F701DD
:1002A800F8017108FF3EF90072080318013EFF3E8D
:1002B800FA00872977087007F3007308840083130E
:1002C8000008F60079087007F30073088400000836
:1002D800F40077087007F50075088400740880003A
:1002E80079087007F30073088400760880000130ED
:1002F800F7070318F80A0030F807FF30F907031862
:10030800FA0AFF30FA077808803AF3007A08803A48
:100318007302031D912979087702031C94299529F2
:100328005E290800831203133908F1003808F00029
:100338003B08F3003A08F2000A128A11BB200A129D
:100348008A117108F9007008F8000A128A11EB2363
:100358000A128A11780883120313BC007908BD00B9
:100368003C083D040319B929BA29D7293C08F600E5
:100378003D08F7000030F800F9003908F1003808A6
:10038800F0003B08F3003A08F2000A128A11BB2079
:100398000A128A117108FB007008FA000A128A1101
:1003A8009C200A128A11831203133C08B8003D08E6
:1003B800B90008007008840083130008F100840A5B
:1003C8000008F2008312031367086804031DED296F
:1003D800EE29F2297030E7000130E800003072029F
:1003E8000430031971020318FA29FB29FF29043084
:1003F800F1000030F20071086702F3006808031C7E
:100408006803F40001307402103003197302031CEE
:100418000E2A0F2A192A68087402031D152A67086C
:100428007302031C182A192A222A0C308316031374
:10043800A4000030A500F001F1012A2A7308E700A2
:100448007408E8006708F0006808F10008000A125C
:100458008A1118200A128A110A128A1113210A1203
:100468008A110A128A15E3270A128A1183160313BE
:10047800260883120313DD0083160313270883124B
:100488000313DE0083160313280883120313DF0007
:100498000330E0000030E1000130E2006330F0009A
:1004A8000030F1000030F200F3000030F400F500F5
:1004B8000A128A117F200A128A11633083120313E9
:1004C800D0000030D1005D30D2006108D40060084F
:1004D800D3006230D5000A128A119D240A128A11AB
:1004E800522A0A128A11002883120313AB00A42A85
:1004F8002408F0002508F1000A128A112A200A129D
:100508008A11BD2A2408F0002508F1000A128A1170
:1005180066200A128A11BD2A2408F0002508F10075
:100528000A128A1107200A128A11BD2A2408F0002B
:100538002508F1000A128A15EA270A128A11BD2A2B
:100548002B08A900AA012A08003A0319AC2ABD2AD7
:100558002908003A03197C2A013A0319862A033A22
:100568000319902A013A03199A2A073A0319BD2A4E
:10057800BD2A0A128A1150200A128A118312031303
:100588002408F4002508F5002808F7002708F600D5
:100598002608F8000A128A11D4220A128A110800C1
:1005A800740884008317751C83130008F900840AF3
:1005B8000008FA007908013E83120313A2007A08A2
:1005C8000318013E003EA300342B740884008317EF
:1005D800751C83130008F900840A0008FA007908DA
:1005E800831203132202FB007A08031C7A0A2302EF
:1005F800FC007B08FF3EA0007C080318013EFF3E7C
:10060800A1002308F2002208F10020087807F90069
:100618007908840083130008FA007408023EFB007E
:1006280075080318013E003EFC007B088400831710
:100638007C1C8313000A222B0310FA0DFF3E031DB6
:10064800202B7A08F3000A128A113D200A128A1117
:10065800013083120313A2070318A30A0030A3076B
:10066800740884008317751C83130008F900840A32
:100678000008FA0076087907FB0077080318770A5C
:100688007A07FC007C08803AFD002308803A7D0246
:10069800031D502B22087B020318532B542BE92AE5
:1006A8000800831203134008B9003F08B80001305E
:1006B800BA000030BB000A128A1196210A128A1168
:1006C800831203133808CC003908CD004C084D04B8
:1006D80003196F2B702BDF2B3F08FF3ECE0040081D
:1006E8000318013EFF3ECF00CF1F7B2B7C2B7D2BB9
:1006F800D02B3F08FF3ECA0040080318013EFF3ECA
:10070800CB00C801C901CB1F8A2B8B2B8C2BC92B83
:1007180048083E07C1004108840083130008C2004E
:100728004E0A982B0310C20CFF3E031D962B42085D
:100738000139C3004A0AA22B0310C30DFF3E031D53
:10074800A02B4308C4004E084C07C6004D08C5003E
:100758000318C50ACE1FB12BC5038312031345081E
:10076800C700460884008317471C83134408800485
:10077800FF30CA070318CB0AFF30CB070130C80780
:100788000318C90A0030C907872BFF30CE070318A2
:10079800CF0AFF30CF07782B3E08F0004C08F10055
:1007A8004D08F2004008F4003F08F3000A128A11CD
:1007B800E0200A128A11831203134C08F0004D0836
:1007C800F1000A128A1164250A128A11080083129C
:1007D8000313B201B30178087904031DF42BF52B38
:1007E800FB2B0130F8070318F90A0030F90700302D
:1007F80079020230031978020318032C042C092CFF
:100808000230F8000030F900212C7908FB00780844
:10081800FA00FA09FB0900307B02023003197A0258
:100828000318172C182C212C0C3083160313A40042
:100838000030A500F801F9019C2C7908F10078082E
:10084800F0000A128A1152260A128A1170088312BD
:100858000313B4007108B50034083504031D352CA2
:10086800362C982C6B086902FA006C08031C6C0A79
:100878006A02FB0079087B02031D442C78087A027F
:100888000318472C482C792C7808023EAE007908CA
:100898000318013E003EAF002E30F0000A128A1104
:1008A800DE210A128A11700883120313B600710838
:1008B800B70036083704031D622C632C642C1E2CE9
:1008C8006A083706031D6A2C6908360603196D2C59
:1008D8006E2C722C3608EB003708EC002E08360711
:1008E800E90037080318013EEA006B08B4006C08F9
:1008F800B5003408B0003508B1003008840083170B
:10090800311C831378088000840A7908800002303B
:10091800B0070318B10A3008B4003108B5007808E8
:10092800023EEB070318EC0A3408F8003508F90012
:10093800080083120313DB01DC0183120313D901BE
:10094800DA01EA2C5008A4005108A5005208A600B4
:100958005408A8005308A70003300A128A11782205
:100968000A128A11FF2C5008A4005108A500520849
:10097800A6005408A8005308A70000300A128A11DC
:1009880078220A128A11FF2C5008A4005108A500E9
:100998005208A6005408A8005308A70002300A12FB
:1009A8008A1178220A128A11FF2C5008A4005108D3
:1009B800A5005208A6005408A8005308A700013053
:1009C8000A128A1178220A128A11FF2C8312031341
:1009D8005C08003A0319F12CFF2C5B08003A031954
:1009E800A62C013A0319B72C033A0319C82C013A6B
:1009F8000319D92CFF2C043083120313D8000C30B0
:100A0800D7003330D600D60B072DD70B072DD80BC0
:100A1800072D013083120313D9070318DA0A0030AF
:100A2800DA075A08803AFF0080307F02031D1E2D26
:100A380005305902031C212D222DEA2C83120313A1
:100A48005B085C04031D292D2A2D432D55088400BD
:100A5800831300080319312D322D432D5208F0005D
:100A68005408F2005308F1000A128A1153210A129D
:100A78008A118312031355088400831380015208D6
:100A8800BE005408C0005308BF000A128A1155233B
:100A98000A128A11013083120313DB070318DC0AD8
:100AA8000030DC075C08803AFF0080307F02031DBD
:100AB8005F2D04305B02031C622D632DA12C0800FE
:100AC8007008F8007108F90070087104031D6D2D95
:100AD8006E2D6F2D512EFE30F20072087807FA0045
:100AE8007908F3000318F30AF21BF3037308FB00F9
:100AF800831203136D086E040319832D842D402E71
:100B08007A08840083177B1C831300087807F20097
:100B180079080318013EF30073086E06031D962D2D
:100B280072086D06031D992D9A2DE62D6D08023E5B
:100B3800F2006E080318013E003EF30072088400BC
:100B48008317731C83130008F400840A0008F50057
:100B58007A08023EF6007B080318013E003EF700C3
:100B6800760884008317771C83137408800075083F
:100B7800840A800084036D08840083176E1C831325
:100B88000008F200840A0008F3007208023EF4002C
:100B980073080318013E003EF5007A0884008317A5
:100BA8007B1C831374088007840F00080318000A4D
:100BB800FF0075087F07800084037A08ED007B0832
:100BC800EE00512E6D08840083176E1C83130008F5
:100BD800F200840A0008F30072086D07F400730835
:100BE8000318730A6E07F5007408023EF6007508CC
:100BF8000318013E003EF7007B087706031D062E0A
:100C08007A087606031D092E0A2E2D2E7A088400EE
:100C180083177B1C83130008F200840A0008F30082
:100C28007208023EF40073080318013E003EF50006
:100C38006D08840083176E1C831374088007840F63
:100C480000080318000AFF0075087F078000840366
:100C5800512E7A08023EF2007B080318013E003E3E
:100C6800F300720884008317731C83136D088000D7
:100C7800840A6E088000E12D7A08023EF2007B08A3
:100C88000318013E003EF300720884008317731CAA
:100C980083138001840A8001E12D08008312031365
:100CA800AC01AD01A201A301A601A7016D086E0464
:100CB800031D5F2E602E632EF001F101D72F6D0802
:100CC800AA006E08AB001C2F2A08840083172B1C6F
:100CD80083130008F200840A0008F3007108730601
:100CE800031D782E70087206031D7B2E7C2EC42EE1
:100CF800260827040319812E822EA82E2A08023ED0
:100D0800F2002B080318013E003EF300720884002D
:100D18008317731C83130008F400840A0008F50085
:100D28002608023EF60027080318013E003EF70099
:100D3800760884008317771C83137408800075086D
:100D4800840A80008403BB2E2A08023EF2002B0886
:100D58000318013E003EF300720884008317731CD9
:100D680083130008ED00840A00088403EE002A08B3
:100D7800023EF0002B080318013E003EF100D72F79
:100D88002A08840083172B1C83130008F200840AA6
:100D98000008F30073087102031DD42E7208700254
:100DA8000318D72ED82E052F2C082D040319DD2E55
:100DB800DE2EFD2E2C08840083172D1C83130008BB
:100DC800F200840A0008F3002A08840083172B1C09
:100DD80083130008F400840A0008F50073087502FC
:100DE800031DF82E72087402031CFB2EFC2EFD2E28
:100DF800052F2A08AC002B08AD002608A2002708FA
:100E0800A3002A08A6002B08A7002A08023EF20021
:100E18002B080318013E003EF30072088400831774
:100E2800731C83130008AA00840A00088403AB001B
:100E38002A082B04031D212F222F682E2C082D048D
:100E48000319272F282F602E2C08023EF2002D08A8
:100E58000318013E003EF300720884008317731CD8
:100E680083130008A800840A00088403A9002C083A
:100E7800840083172D1C83130008F200840A0008DD
:100E8800F30070087202F4007108031C710A7302FF
:100E9800F50000307502053003197402031C552F44
:100EA800562FAE2F2C08840083172D1C831300089F
:100EB800F200840A0008F30070087202F400710856
:100EC800031C710A7302F5007408FE3EA000750841
:100ED8000318013EFF3EA1002C08840083172D1C37
:100EE800831370088000840A710880002C0884002D
:100EF80083172D1C831300082C07F2002D080318F4
:100F0800013EF3007208023EA40073080318013E74
:100F1800003EA500240884008317251C831320089D
:100F28008000840A210880002408023EF200250877
:100F38000318013E003EF300720884008317731CF7
:100F4800831328088000840A290880002408A80040
:100F58002508A9002D086E06031DB42F2C086D0660
:100F6800031DB72FB82FBD2F2808ED002908EE0064
:100F7800CF2F2208023EF20023080318013E003E4C
:100F8800F300720884008317731C831328088000F9
:100F9800840A290880002C08023EF0002D08031856
:100FA800013E003EF1000800831603130A128A115D
:100FB80004200A128A11A6000A128A1105200A12B0
:100FC8008A11A7000A128A1106200A128A11A8009B
:100FD800A001A101A201A301A401A5018312031389
:100FE800E701E801E901EA01EB01EC01ED01EE019D
:100FF80083010A128A112B2A08308A000408840AFD
:0C100800820700349634003400340034B9
:101FC6008316031386018312031386010800700823
:101FD60084008317711C831301308007840A031859
:101FE600800A0800F00070088312031393008C1D0A
:0A1FF600FD2FFE2FFA2F8C110800BA
:02400E003A3D39
:00000001FF
