:060000000A128A11FC2F18
:100CFA008316031386018312031386010800F0008A
:100D0A0070088312031393008C1D8C2E8D2E892E4E
:100D1A008C110800831603130716D7308705DF30B6
:100D2A008505DF3083120313850530309400803047
:100D3A0083160313940008008312031385127108A3
:100D4A000A128A1184260A128A1173080A128A114F
:100D5A0084260A128A1183120313851608000830A2
:100D6A00F6007608F400F5017408F1007508F2003F
:100D7A00F3010A128A11A1260A128A110130F60217
:100D8A00031DC82EC92EB62E0800700884008317CA
:100D9A00711C831372088000840A7308800070082B
:100DAA00023EF60071080318013E003EF70076087D
:100DBA0084008317771C831374088000840A7508DB
:100DCA00800008000330F9000830F8007730F70097
:100DDA00F70BED2EF80BED2EF90BED2E8312031304
:100DEA0085160930F1000030F200F3010A128A1167
:100DFA00A1260A128A110B30F1000030F2000730E6
:100E0A00F3000A128A11A1260A128A110A30F10085
:100E1A000030F2000230F3000A128A11A1260A12E7
:100E2A008A110C30F1000030F200F301F30A0A12C1
:100E3A008A11A1260A128A110A128A11B4260A12E2
:100E4A008A110800740884008317751C831300082C
:100E5A00F600840A0008F7007608013EFB007708CE
:100E6A000318013E003EFC00612F7C08F2007B085B
:100E7A00F1000330F6007408023EF7007508031803
:100E8A00013E003EF800770884008317781C83131C
:100E9A00000A512F0310F60DFF3E031D4F2F76084F
:100EAA00F3000A128A11A1260A128A110130FB07DD
:100EBA000318FC0A0030FC07740884008317751CA9
:100ECA0083130008F600840A0008F7007608023E39
:100EDA00F80077080318013E003EF9007908803AC5
:100EEA00FA007C08803A7A02031D7D2F7B0878027B
:100EFA000318802F812F3A2F08000A128A118F2691
:100F0A000A128A110A128A11E7260A128A110A1289
:100F1A008A117D260A128A1183120313A301A401DE
:100F2A0083120313A501A6010A128A11B4260A1212
:100F3A008A112730F0000030F100831203132408CD
:100F4A00F3002308F2002608F5002508F4000A1227
:100F5A008A11CA260A128A112730F4000030F500D5
:100F6A000A128A1127270A128A11033083120313DD
:100F7A00A2000830A1007630A000A00BC22FA10B5E
:100F8A00C22FA20BC22F0000013083120313A50740
:100F9A000318A60A0030A6072608803AFF00803008
:100FAA007F02031DDA2F09302502031CDD2FDE2FF5
:100FBA00992F013083120313A3070318A40A0030E0
:100FCA00A4072408803AFF0080307F02031DEF2F18
:100FDA0007302302031CF22FF32F952F0A128A11CE
:100FEA00B4260A128A11912F0A128A110028830143
:060FFA000A128A11822F89
:02400E003A3D39
:00000001FF
