:060000000A128A11FC2F18
:100DE0008316031386018312031386010800F000A3
:100DF00070088312031393008C1DFF2E002FFC2E0E
:100E00008C1108000830F300F10173080A128A11EE
:100E100024270A128A110130F302031D102F112F0B
:100E2000042F0800831603130716D7308705DF3019
:100E30008505DF3083120313850530309400803040
:100E40008316031394000800F20083120313851223
:100E500072080A128A11F7260A128A1171080A12F8
:100E60008A11F7260A128A118312031385160800C5
:100E70000330F6000830F5007730F400F40B3E2F15
:100E8000F50B3E2FF60B3E2F831203138516F1014F
:100E900009300A128A1124270A128A110730F10038
:100EA0000B300A128A1124270A128A110230F1002B
:100EB0000A300A128A1124270A128A11F101F10A52
:100EC0000C300A128A1124270A128A110A128A1176
:100ED00002270A128A1108000A128A1112270A121E
:100EE0008A110A128A1138270A128A110A128A11E3
:100EF000F0260A128A11FA01FB010130FC000030D1
:100F0000FD007D08803AFF0080307F02031D8A2F9C
:100F100009307C02031C8D2F8E2F8F2FCF2F7D0841
:100F2000803AFF0080307F02031D982F06307C023C
:100F300003189B2F9C2FAB2F0130F7007C08FF3E3E
:100F4000013EA42F0310F70DFF3E031DA22F7708CB
:100F50008312031386000130F7007A0AB12F0310C1
:100F6000F70DFF3E031DAF2F7708F1007C080A1232
:100F70008A1124270A128A110330F9000830F80078
:100F80007730F700F70BC22FF80BC22FF90BC22FE7
:100F90000130FC070318FD0A0030FD07812F0130E6
:100FA000FA070318FB0A0030FB077B08803AFF00B2
:100FB00080307F02031DDE2F08307A02031CE12FF0
:100FC000E22FE92FFA01FB010A128A1102270A1205
:100FD0008A118312031386010330F9000830F800E8
:100FE0007730F700F70BF22FF80BF22FF90BF22FF7
:100FF0007D2F0A128A11002883010A128A116C2F90
:02400E003A3D39
:00000001FF
