:100000000A128A11D82F00308A000408840A820755
:100010000034E834033400340034963400340034BF
:020020000034AA
:1000B20007340534023483160313860183120313B3
:1000C20086010800700884008317711C83130130B5
:1000D2008007840A0318800A0800F000700883125F
:1000E200031393008C1D7628772873288C1108003F
:1000F200700884008317711C8313FF308007840FFC
:1001020000080318000AFF00FF307F078000840305
:100112000800831603130716D7308705DF308505DD
:10012200DF3083120313850530309400803083164C
:100132000313940008007008023EF20071080318CD
:10014200013E003EF300720884008317731C831380
:1001520001308007840A0318800A080083120313FF
:10016200851271080A128A116E200A128A11730806
:100172000A128A116E200A128A118312031385163B
:1001820008000830F6007608F400F5017408F10062
:100192007508F200F3010A128A11AF200A128A11BD
:1001A2000130F602031DD628D728C428080070089B
:1001B200023EF20071080318013E003EF30072088D
:1001C20084008317731C8313FF308007840F000899
:1001D2000318000AFF00FF307F0780008403080035
:1001E200700884008317711C831372088000840ACC
:1001F200730880007008023EF60071080318013E81
:10020200003EF700760884008317771C8313740876
:100212008000840A7508800008007608FC007708D0
:10022200FD001E297C08840083177D1C8313780837
:1002320080000130FC070318FD0A0130FA02003089
:10024200031CFB03FB027A0A031D2B297B0A031DF5
:100252002B292C2913290800F401F501701C3229DD
:10026200332939297208F4070318F50A7308F507C8
:1002720001300310F20DF30DFF3E031D3A29013048
:100282000310F10CF00CFF3E031D412970087104AC
:10029200031D4C294D292F297508F1007408F0001F
:1002A20008000330F9000830F8007730F700F70B48
:1002B2005829F80B5829F90B58298312031385166C
:1002C2000930F1000030F200F3010A128A11AF2066
:1002D2000A128A110B30F1000030F2000730F300ED
:1002E2000A128A11AF200A128A110A30F100003074
:1002F200F2000230F3000A128A11AF200A128A11A8
:100302000C30F1000030F200F301F30A0A128A11F4
:10031200AF200A128A110A128A11C2200A128A1105
:100322000800831203133908F1003808F0003B0873
:10033200F3003A08F2000A128A112D210A128A11D8
:100342007108F9007008F8000A128A11F5230A12DE
:100352008A11780883120313BC007908BD003C0897
:100362003D040319B529B629D3293C08F6003D08F6
:10037200F7000030F800F9003908F1003808F00001
:100382003B08F3003A08F2000A128A112D210A12E0
:100392008A117108FB007008FA000A128A110E21F4
:1003A2000A128A11831203133C08B8003D08B900EF
:1003B20008000A128A118A200A128A110A128A1164
:1003C20052210A128A110A128A115C200A128A1117
:1003D20083160313260883120313DE008316031306
:1003E200270883120313DF008316031328088312DE
:1003F2000313E0000330E1000030E2006330F0005C
:100402000030F1000030F200F3000030F400F5009B
:100412000A128A11F1200A128A116330831203131D
:10042200D2000030D3005E30D4006208D6006108EA
:10043200D5000A128A114D230A128A11FF290A12C3
:100442008A1100287008840083130008F100840ACE
:100452000008F2008312031367086804031D322A9E
:10046200332A372A7030E7000130E8000030720288
:1004720004300319710203183F2A402A442A043027
:10048200F1000030F20071086702F3006808031CF3
:100492006803F40001307402103003197302031C64
:1004A200532A542A5E2A68087402031D5A2A6708CE
:1004B2007302031C5D2A5E2A672A0C30831603131B
:1004C200A4000030A500F001F1016F2A7308E700D3
:1004D2007408E8006708F0006808F1000800831259
:1004E2000313AB009C2A2408F0002508F1000A122D
:1004F2008A119C200A128A11B52A2408F0002508C4
:10050200F1000A128A11D8200A128A11B52A240887
:10051200F0002508F1000A128A1179200A128A11C4
:10052200B52A2408F0002508F1000A128A11632076
:100532000A128A11B52A2B08A900AA012A08003A30
:100542000319A42AB52A2908003A0319742A013A80
:1005520003197E2A033A0319882A013A0319922AB7
:10056200073A0319B52AB52A0A128A11C2200A12B9
:100572008A11831203132408F4002508F5002808C1
:10058200F7002708F6002608F8000A128A11CC2282
:100592000A128A110800740884008317751C8313D9
:1005A2000008F900840A0008FA007908013E831263
:1005B2000313A2007A080318013E003EA3002C2B6D
:1005C200740884008317751C83130008F900840AD9
:1005D2000008FA007908831203132202FB007A084A
:1005E200031C7A0A2302FC007B08FF3EA0007C0861
:1005F2000318013EFF3EA1002308F2002208F10089
:1006020020087807F9007908840083130008FA00AB
:100612007408023EFB0075080318013E003EFC0010
:100622007B08840083177C1C8313000A1A2B031097
:10063200FA0DFF3E031D182B7A08F3000A128A11E5
:10064200AF200A128A11013083120313A207031882
:10065200A30A0030A307740884008317751C831350
:100662000008F900840A0008FA0076087907FB00FE
:1006720077080318770A7A07FC007C08803AFD00A5
:100682002308803A7D02031D482B22087B020318AF
:100692004B2B4C2BE12A080083120313DA01DB01F6
:1006A20083120313DC01DD019A2B5208A4005308C4
:1006B200A5005408A6005608A8005508A700033054
:1006C2000A128A1170220A128A11AF2B5208A40050
:1006D2005308A5005408A6005608A8005508A7000C
:1006E20000300A128A1170220A128A11AF2B5208A4
:1006F200A4005308A5005408A6005608A8005508EF
:10070200A70002300A128A1170220A128A11AF2B34
:100712005208A4005308A5005408A6005608A800D1
:100722005508A70001300A128A1170220A128A1192
:10073200AF2B831203135B08003A0319A12BAF2BD3
:100742005A08003A0319562B013A0319672B033A48
:100752000319782B013A0319892BAF2B043083122A
:100762000313D9000C30D8003330D700D70BB72B86
:10077200D80BB72BD90BB72B013083120313DC072D
:100782000318DD0A0030DD075D08803AFF00803083
:100792007F02031DCE2B05305C02031CD12BD22B12
:1007A2009A2B831203135408BE005608C000550842
:1007B200BF000A128A11A7240A128A110130831279
:1007C2000313DA070318DB0A0030DB075B08803A01
:1007D200FF0080307F02031DF02B04305A02031CFD
:1007E200F32BF42B512B080083120313B201B30134
:1007F20078087904031DFE2BFF2B052C0130F80726
:100802000318F90A0030F90700307902023003199F
:10081200780203180D2C0E2C132C0230F800003035
:10082200F9002B2C7908FB007808FA00FA09FB0979
:1008320000307B02023003197A020318212C222C89
:100842002B2C0C3083160313A4000030A500F801F2
:10085200F901A62C7908F1007808F0000A128A1131
:1008620052260A128A11700883120313B400710807
:10087200B50034083504031D3F2C402CA22C6B0814
:100882006902FA006C08031C6C0A6A02FB00790810
:100892007B02031D4E2C78087A020318512C522C2D
:1008A200832C7808023EAE0079080318013E003E10
:1008B200AF002E30F0000A128A1123220A128A1186
:1008C200700883120313B6007108B70036083704A4
:1008D200031D6C2C6D2C6E2C282C6A083706031D08
:1008E200742C690836060319772C782C7C2C360870
:1008F200EB003708EC002E083607E900370803182A
:10090200013EEA006B08B4006C08B5003408B00080
:100912003508B100300884008317311C831378082E
:100922008000840A790880000230B0070318B10AF7
:100932003008B4003108B5007808023EEB0703180E
:10094200EC0A3408F8003508F90008008312031392
:100952004008B9003F08B8000130BA000030BB00BF
:100962000A128A1192210A128A1183120313380879
:10097200CE003908CF004E084F040319C12CC22CF7
:10098200582D3F08FF3ED00040080318013EFF3EAD
:10099200D100D11FCD2CCE2CCF2C222D3F08FF3ED3
:1009A200CA0040080318013EFF3ECB00C801C9013E
:1009B200CB1FDC2CDD2CDE2C1B2D48083E07C10092
:1009C2004108840083130008C200500AEA2C031075
:1009D200C20CFF3E031DE82C42080139C3004A0A3B
:1009E200F42C0310C30DFF3E031DF22C4308C40078
:1009F20050084E07C6004F08C5000318C50AD01F8D
:100A0200032DC503831203134508C700460884005B
:100A12008317471C831344088004FF30CA07031856
:100A2200CB0AFF30CB070130C8070318C90A0030D0
:100A3200C907D92CFF30D0070318D10AFF30D107DC
:100A4200CA2CCC01CD014A2D831203134C084E0748
:100A5200C2004F08C1000318C10ACC1F312DC103C7
:100A6200831203134108C300420884008317431C06
:100A720083130008C4004C083E07C50045088400E3
:100A82004408831380000130CC070318CD0A0030DC
:100A9200CD074D08803AC1004008803A4102031D4B
:100AA200542D3F084C02031C572D582D252D83121F
:100AB20003134E08F0004F08F1000A128A11642550
:100AC2000A128A1108007008F8007108F90070080B
:100AD2007104031D6D2D6E2D6F2D512EFE30F2000F
:100AE20072087807FA007908F3000318F30AF21B78
:100AF200F3037308FB00831203136D086E040319DA
:100B0200832D842D402E7A08840083177B1C831347
:100B120000087807F20079080318013EF300730811
:100B22006E06031D962D72086D06031D992D9A2DD2
:100B3200E62D6D08023EF2006E080318013E003EEB
:100B4200F300720884008317731C83130008F400F7
:100B5200840A0008F5007A08023EF6007B080318B2
:100B6200013E003EF700760884008317771C83134A
:100B7200740880007508840A800084036D0884006C
:100B820083176E1C83130008F200840A0008F30026
:100B92007208023EF40073080318013E003EF5009D
:100BA2007A08840083177B1C831374088007840FE0
:100BB20000080318000AFF0075087F0780008403FD
:100BC2007A08ED007B08EE00512E6D088400831731
:100BD2006E1C83130008F200840A0008F3007208F6
:100BE2006D07F40073080318730A6E07F5007408A2
:100BF200023EF60075080318013E003EF7007B082E
:100C02007706031D062E7A087606031D092E0A2E84
:100C12002D2E7A08840083177B1C83130008F200B0
:100C2200840A0008F3007208023EF40073080318F5
:100C3200013E003EF5006D08840083176E1C83138D
:100C420074088007840F00080318000AFF00750863
:100C52007F0780008403512E7A08023EF2007B084F
:100C62000318013E003EF300720884008317731CD0
:100C720083136D088000840A6E088000E12D7A08D3
:100C8200023EF2007B080318013E003EF3007208A8
:100C920084008317731C83138001840A8001E12D71
:100CA200080083120313AC01AD01A201A301A60146
:100CB200A7016D086E04031D5F2E602E632EF001E6
:100CC200F101D72F6D08AA006E08AB001C2F2A086D
:100CD200840083172B1C83130008F200840A000887
:100CE200F30071087306031D782E70087206031D47
:100CF2007B2E7C2EC42E260827040319812E822ED9
:100D0200A82E2A08023EF2002B080318013E003EDC
:100D1200F300720884008317731C83130008F40025
:100D2200840A0008F5002608023EF6002708031888
:100D3200013E003EF700760884008317771C831378
:100D4200740880007508840A80008403BB2E2A0878
:100D5200023EF2002B080318013E003EF300720827
:100D620084008317731C83130008ED00840A0008B3
:100D72008403EE002A08023EF0002B080318013E0D
:100D8200003EF100D72F2A08840083172B1C8313FF
:100D92000008F200840A0008F30073087102031DC0
:100DA200D42E720870020318D72ED82E052F2C08C5
:100DB2002D040319DD2EDE2EFD2E2C088400831750
:100DC2002D1C83130008F200840A0008F3002A088D
:100DD200840083172B1C83130008F400840A000884
:100DE200F50073087502031DF82E72087402031CC5
:100DF200FB2EFC2EFD2E052F2A08AC002B08AD0081
:100E02002608A2002708A3002A08A6002B08A7008C
:100E12002A08023EF2002B080318013E003EF300AE
:100E2200720884008317731C83130008AA00840AC3
:100E320000088403AB002A082B04031D212F222F54
:100E4200682E2C082D040319272F282F602E2C081A
:100E5200023EF2002D080318013E003EF300720824
:100E620084008317731C83130008A800840A0008F7
:100E72008403A9002C08840083172D1C8313000807
:100E8200F200840A0008F30070087202F40071088C
:100E9200031C710A7302F500003075020530031954
:100EA2007402031C552F562FAE2F2C088400831773
:100EB2002D1C83130008F200840A0008F300700856
:100EC2007202F4007108031C710A7302F5007408BF
:100ED200FE3EA00075080318013EFF3EA1002C084B
:100EE200840083172D1C831370088000840A710804
:100EF20080002C08840083172D1C831300082C0704
:100F0200F2002D080318013EF3007208023EA4000D
:100F120073080318013E003EA500240884008317CD
:100F2200251C831320088000840A210880002408DD
:100F3200023EF20025080318013E003EF30072084B
:100F420084008317731C831328088000840A2908ED
:100F520080002408A8002508A9002D086E06031D9C
:100F6200B42F2C086D06031DB72FB82FBD2F2808EC
:100F7200ED002908EE00CF2F2208023EF2002308DE
:100F82000318013E003EF300720884008317731CAD
:100F9200831328088000840A290880002C08023E56
:100FA200F0002D080318013E003EF10008008316F0
:100FB20003130A128A1159200A128A11A6000A1270
:100FC2008A115A200A128A11A7000A128A115B207A
:100FD2000A128A11A800A001A101A201A301A40181
:100FE200A50183120313E701E801E901EA01EB011C
:0E0FF200EC01ED01EE0183010A128A11DA29E9
:02400E003A3D39
:00000001FF
