:060000000A128A11EA2F2A
:100B54000734053407348316031386018312031301
:100B64008601080072087002F0007308031C730AFF
:100B74007102F1000800F00070088312031393005F
:100B84008C1DC52DC62DC22D8C1108007008840043
:100B94008317711C831301308007840A0318800AA9
:100BA4000800700884008317711C8313FF308007CA
:100BB400840F00080318000AFF00FF307F0780003D
:100BC40084030800831603130716D7308705DF3024
:100BD4008505DF308312031385053030940080309F
:100BE40083160313940008008312031385127108FB
:100BF4000A128A11BD250A128A1173080A128A116F
:100C0400BD250A128A118312031385160800700881
:100C1400023EF20071080318013E003EF300720820
:100C240084008317731C831301308007840A03181C
:100C3400800A08000830F6007608F400F50174080C
:100C4400F1007508F200F3010A128A11F6250A125E
:100C54008A110130F602031D302E312E1E2E08009B
:100C64007008023EF20071080318013E003EF300D2
:100C7400720884008317731C8313FF308007840F6A
:100C840000080318000AFF00FF307F078000840378
:100C940008000330F9000830F8007730F700F70B4C
:100CA400512EF80B512EF90B512E83120313851676
:100CB4000930F1000030F200F3010A128A11F6251E
:100CC4000A128A110B30F1000030F2000730F300F1
:100CD4000A128A11F6250A128A110A30F10000302C
:100CE400F2000230F3000A128A11F6250A128A1160
:100CF4000C30F1000030F200F301F30A0A128A11F9
:100D0400F6250A128A110A128A111C260A128A115D
:100D14000800740884008317751C83130008F90005
:100D2400840A0008FA007908013E83120313A20022
:100D34007A080318013E003EA300EB2E74088400D9
:100D44008317751C83130008F900840A0008FA004D
:100D54007908831203132202FB007A08031C7A0A1F
:100D64002302FC007B08FF3EA0007C080318013E20
:100D7400FF3EA1002308F2002208F10020087807B2
:100D8400F9007908840083130008FA007408023E0D
:100D9400FB0075080318013E003EFC007B0884003C
:100DA40083177C1C8313000AD92E0310FA0DFF3E0F
:100DB400031DD72E7A08F3000A128A11F6250A12A7
:100DC4008A11013083120313A2070318A30A003007
:100DD400A307740884008317751C83130008F900A3
:100DE400840A0008FA0076087907FB0077080318DC
:100DF400770A7A07FC007C08803AFD002308803AD1
:100E04007D02031D072F22087B0203180A2F0B2FD4
:100E1400A02E08000A128A11E4250A128A110A1265
:100E24008A114B260A128A110A128A11AD250A1256
:100E34008A110830F0000030F1000330F200003075
:100E4400F3000A128A11B4250A128A1183120313B9
:100E54002E08A7002F08A8003008A900023083122A
:100E64000313AA000030AB000230AC000030AD0028
:100E74002A30F0000030F1000A128A1109260A1201
:100E84008A110A128A111C260A128A112A30F400C5
:100E94000030F5000330F6000030F7002730F8008A
:100EA4000A128A118B260A128A110B308312031339
:100EB400A6002630A5005D30A400A40B5F2FA50B6F
:100EC4005F2FA60B5F2F2A30F0000030F1000A12CA
:100ED4008A11C8250A128A110A128A111C260A12BA
:100EE4008A112A30F4000030F5000330F600003097
:100EF400F7002730F8000A128A118B260A128A1189
:100F04000B3083120313A6002630A5005D30A40025
:100F1400A40B8A2FA50B8A2FA60B8A2F2A30F00048
:100F24000030F1000A128A1132260A128A110A12BA
:100F34008A111C260A128A112A30F4000030F500A6
:100F44000330F6000030F7002730F8000A128A1147
:100F54008B260A128A110B3083120313A600263043
:100F6400A5005D30A400A40BB52FA50BB52FA60BCF
:100F7400B52F2A30F0000030F1000A128A11D3256F
:100F84000A128A110A128A111C260A128A112A309C
:100F9400F4000030F5000330F6000030F70027308D
:100FA400F8000A128A118B260A128A110B30831256
:100FB4000313A6002630A5005D30A400A40BE02F87
:100FC400A50BE02FA60BE02F302F0A128A11002860
:100FD4000A128A11AA250A128A11AE000A128A116B
:100FE400AB250A128A11AF000A128A11AC250A1223
:0C0FF4008A11B00083010A128A110C2F30
:02400E003A3D39
:00000001FF
