:060000000A128A11EA2F2A
:100BF600073405340734831603138601831203135F
:100C06008601080072087002F0007308031C730A5C
:100C16007102F1000800F0007008831203139300BC
:100C26008C1D162E172E132E8C11080083160313F7
:100C36000716D7308705DF308505DF3083120313AB
:100C46008505303094008030831603139400080025
:100C560083120313851271080A128A110E260A12CC
:100C66008A1173080A128A110E260A128A11831231
:100C76000313851608000830F6007608F400F5011F
:100C86007408F1007508F200F3010A128A112B2686
:100C96000A128A110130F602031D522E532E402EDF
:100CA6000800700884008317711C83137208800083
:100CB600840A730880007008023EF6007108031863
:100CC600013E003EF700760884008317771C8313E5
:100CD60074088000840A7508800008000A128A11C8
:100CE60019260A128A110A128A11AE260A128A11C6
:100CF6000A128A11FE250A128A110830F000003005
:100D0600F1000330F2000030F3000A128A110526C2
:100D16000A128A11710883120313B4007008B30013
:100D26003908B0003A08B1003B08B20035308312EA
:100D36000313A4000030A5003408A7003308A6005A
:100D46003030A8000A128A11EE260A128A11992E4C
:100D56000A128A1100280330F9000830F8007730AB
:100D6600F700F70BB42EF80BB42EF90BB42E831242
:100D7600031385160930F1000030F200F3010A1260
:100D86008A112B260A128A110B30F1000030F2006C
:100D96000730F3000A128A112B260A128A110A302A
:100DA600F1000030F2000230F3000A128A112B26FD
:100DB6000A128A110C30F1000030F200F301F30A36
:100DC6000A128A112B260A128A110A128A113E2643
:100DD6000A128A11080083120313AC01AD01552FC4
:100DE60083120313AE01AF01372F0A128A113E2672
:100DF6000A128A11831203132408F0002508F10051
:100E06002D08F3002C08F2002F08F5002E08F40038
:100E16000A128A1154260A128A118312031324080D
:100E2600F4002508F5000330F6000030F700280826
:100E3600F8000A128A1169270A128A1106308312EB
:100E46000313AB001330AA00AD30A900A90B292F5C
:100E5600AA0B292FAB0B292F013083120313AE07E0
:100E66000318AF0A0030AF072608033EA90027087B
:100E76000318013E003EAA002A08803AAB002F085C
:100E8600803A2B02031D492F2E08290203184C2FE6
:100E96004D2FF82E013083120313AC070318AD0A49
:100EA6000030AD072708803AA9002D08803A2902AC
:100EB600031D5F2F2C0826020318622F632FF32EC3
:100EC6000A128A113E260A128A1108007408840042
:100ED6008317751C83130008F900840A0008FA00BA
:100EE6007908013E83120313A2007A080318013E13
:100EF600003EA300C92F740884008317751C831352
:100F06000008F900840A0008FA007908831203131E
:100F16002202FB007A08031C7A0A2302FC007B08E3
:100F2600FF3EA0007C080318013EFF3EA1002308F7
:100F3600F2002208F10020087807F90079088400F9
:100F460083130008FA007408023EFB0075080318B4
:100F5600013E003EFC007B08840083177C1C831343
:100F6600000AB72F0310FA0DFF3E031DB52F7A08AE
:100F7600F3000A128A112B260A128A1101308312F3
:100F86000313A2070318A30A0030A30774088400FA
:100F96008317751C83130008F900840A0008FA00F9
:100FA60076087907FB0077080318770A7A07FC00AA
:100FB6007C08803AFD002308803A7D02031DE52F58
:100FC60022087B020318E82FE92F7E2F08000A1259
:100FD6008A11FB250A128A11B9000A128A11FC2508
:100FE6000A128A11BA000A128A11FD250A128A11FA
:0A0FF600BB0083010A128A11712E5C
:02400E003A3D39
:00000001FF
