:060000000A128A11FC2F18
:100F440083120313860183160313860108000A1211
:100F54008A11A2270A128A118312031386010A1224
:100F64008A11BA270A128A11B12F0A128A1100288B
:100F7400F301F4017408803AFF0080307F02031DFE
:100F8400C52F03307302031CC82FC92FCA2FEB2FA0
:100F94000130F000730AD02F0310F00DFF3E031D43
:100FA400CE2F70088312031386000630F20013302C
:100FB400F100AD30F000F00BDD2FF10BDD2FF20B63
:100FC400DD2FE42F0130F3070318F40A0030F4078F
:100FD400BC2F8312031386010630F2001330F10094
:100FE400AD30F000F00BF42FF10BF42FF20BF42FD3
:0C0FF400FB2F080083010A128A11A92FAC
:02400E003A3D39
:00000001FF
