:100000000A128A11FC2F00308A000408840A820731
:1000100000340034003400341F3400340034003421
:100020000034003400340034003400341834183400
:100030000034003400340034003400340034003420
:10004000003400340C340C3400340C340C340034E0
:1000500000340E34113411340F34013402340C34B2
:1000600000340E34113411340E34113411340E3482
:1000700000341F34013402340434083408340834A2
:1000800000340634083410341E34113411340E3464
:1000900000341F3410341E340134013411340E3452
:1000A00000341F34023404340234013411340E3469
:1000B00000340E34113401340234043408341F3453
:1000C000003404340C3404340434043404340E3462
:1000D00000340E34113413341534193411340E3401
:1000E0000034023406340A3412341F340234023429
:0200F0000034DA
:100CF6008316031386018312031386010800F0008E
:100D060070088312031393008C1D8A2E8B2E872E58
:100D16008C110800831603130716D7308705DF30BA
:100D26008505DF308312031385053030940080304B
:100D360083160313940008008312031385127108A7
:100D46000A128A1182260A128A1173080A128A1155
:100D560082260A128A1183120313851608000830A8
:100D6600F6007608F400F5017408F1007508F20043
:100D7600F3010A128A119F260A128A110130F6021D
:100D8600031DC62EC72EB42E0800700884008317D4
:100D9600711C831372088000840A7308800070082F
:100DA600023EF60071080318013E003EF700760881
:100DB60084008317771C831374088000840A7508DF
:100DC600800008000330F9000830F8007730F7009B
:100DD600F70BEB2EF80BEB2EF90BEB2E831203130E
:100DE60085160930F1000030F200F3010A128A116B
:100DF6009F260A128A110B30F1000030F2000730EC
:100E0600F3000A128A119F260A128A110A30F1008B
:100E16000030F2000230F3000A128A119F260A12ED
:100E26008A110C30F1000030F200F301F30A0A12C5
:100E36008A119F260A128A110A128A11B2260A12EA
:100E46008A1108000A128A118D260A128A110A12BC
:100E56008A11E5260A128A110A128A117B260A12BB
:100E66008A112730F0000030F1000030F200F30064
:100E76000130F4000030F5000A128A11C8260A1261
:100E86008A112730F4000030F5000830F6000030F3
:100E9600F7006930F8000A128A117A270A128A11B5
:100EA600153083120313A6004B30A500BD30A400F5
:100EB600A40B5B2FA50B5B2FA60B5B2F622F0A12D1
:100EC6008A11B2260A128A11153083120313A6005C
:100ED6004B30A500BD30A400A40B6F2FA50B6F2FC0
:100EE600A60B6F2F762F342F0A128A11002874084A
:100EF60084008317751C83130008F900840A000810
:100F0600FA007908013E83120313A2007A08031837
:100F1600013E003EA300DB2F740884008317751C76
:100F260083130008F900840A0008FA00790883127E
:100F360003132202FB007A08031C7A0A2302FC0030
:100F46007B08FF3EA0007C080318013EFF3EA1007F
:100F56002308F2002208F1002008780784000A120C
:100F66008A1103200A128A11F9007408023EFA0057
:100F760075080318013E003EFB007A0884008317BB
:100F86007B1C8313000AC92F0310F90DFF3E031DB6
:100F9600C72F7908F3000A128A119F260A128A11AE
:100FA600013083120313A2070318A30A0030A30714
:100FB600740884008317751C83130008F900840ADB
:100FC6000008FA0076087907FB0077080318770A05
:100FD6007A07FC007C08803AFD002308803A7D02EF
:100FE600031DF72F22087B020318FA2FFB2F8F2FE2
:0A0FF600080083010A128A11252F5A
:02400E003A3D39
:00000001FF
